{"contracts/MatchSummary2/MatchSummary2.sol":{"MatchSummary2":{"abi":[{"anonymous":false,"inputs":[{"indexed":true,"internalType":"uint256","name":"date","type":"uint256"},{"indexed":false,"internalType":"string","name":"location","type":"string"},{"indexed":false,"internalType":"string","name":"summaryJson","type":"string"}],"name":"MatchCommitted","type":"event"},{"inputs":[{"internalType":"uint256","name":"date","type":"uint256"},{"internalType":"string","name":"location","type":"string"},{"internalType":"string","name":"summaryJson","type":"string"}],"name":"commitSummary","outputs":[],"stateMutability":"nonpayable","type":"function"}],"evm":{"bytecode":{"linkReferences":{},"object":"608060405234801561001057600080fd5b5061029a806100206000396000f3fe608060405234801561001057600080fd5b506004361061002b5760003560e01c806384ad3bac14610030575b600080fd5b61004a60048036038101906100459190610136565b61004c565b005b847f135a923e37b6f19b13c21a67fdfc58a4b6b279b8b4254b12d0a0e5b2d6b7c016858585856040516100829493929190610229565b60405180910390a25050505050565b600080fd5b600080fd5b6000819050919050565b6100ae8161009b565b81146100b957600080fd5b50565b6000813590506100cb816100a5565b92915050565b600080fd5b600080fd5b600080fd5b60008083601f8401126100f6576100f56100d1565b5b8235905067ffffffffffffffff811115610113576101126100d6565b5b60208301915083600182028301111561012f5761012e6100db565b5b9250929050565b60008060008060006060868803121561015257610151610091565b5b6000610160888289016100bc565b955050602086013567ffffffffffffffff81111561018157610180610096565b5b61018d888289016100e0565b9450945050604086013567ffffffffffffffff8111156101b0576101af610096565b5b6101bc888289016100e0565b92509250509295509295909350565b600082825260208201905092915050565b82818337600083830152505050565b6000601f19601f8301169050919050565b600061020883856101cb565b93506102158385846101dc565b61021e836101eb565b840190509392505050565b600060408201905081810360008301526102448186886101fc565b905081810360208301526102598184866101fc565b90509594505050505056fea264697066735822122073e32bd07ac44426b341196490609e3baadd7409c9b3a80513e3eca59fb64b3364736f6c63430008140033","opcodes":"PUSH1 0x80 PUSH1 0x40 MSTORE CALLVALUE DUP1 ISZERO PUSH2 0x10 JUMPI PUSH1 0x0 DUP1 REVERT JUMPDEST POP PUSH2 0x29A DUP1 PUSH2 0x20 PUSH1 0x0 CODECOPY PUSH1 0x0 RETURN INVALID PUSH1 0x80 PUSH1 0x40 MSTORE CALLVALUE DUP1 ISZERO PUSH2 0x10 JUMPI PUSH1 0x0 DUP1 REVERT JUMPDEST POP PUSH1 0x4 CALLDATASIZE LT PUSH2 0x2B JUMPI PUSH1 0x0 CALLDATALOAD PUSH1 0xE0 SHR DUP1 PUSH4 0x84AD3BAC EQ PUSH2 0x30 JUMPI JUMPDEST PUSH1 0x0 DUP1 REVERT JUMPDEST PUSH2 0x4A PUSH1 0x4 DUP1 CALLDATASIZE SUB DUP2 ADD SWAP1 PUSH2 0x45 SWAP2 SWAP1 PUSH2 0x136 JUMP JUMPDEST PUSH2 0x4C JUMP JUMPDEST STOP JUMPDEST DUP5 PUSH32 0x135A923E37B6F19B13C21A67FDFC58A4B6B279B8B4254B12D0A0E5B2D6B7C016 DUP6 DUP6 DUP6 DUP6 PUSH1 0x40 MLOAD PUSH2 0x82 SWAP5 SWAP4 SWAP3 SWAP2 SWAP1 PUSH2 0x229 JUMP JUMPDEST PUSH1 0x40 MLOAD DUP1 SWAP2 SUB SWAP1 LOG2 POP POP POP POP POP JUMP JUMPDEST PUSH1 0x0 DUP1 REVERT JUMPDEST PUSH1 0x0 DUP1 REVERT JUMPDEST PUSH1 0x0 DUP2 SWAP1 POP SWAP2 SWAP1 POP JUMP JUMPDEST PUSH2 0xAE DUP2 PUSH2 0x9B JUMP JUMPDEST DUP2 EQ PUSH2 0xB9 JUMPI PUSH1 0x0 DUP1 REVERT JUMPDEST POP JUMP JUMPDEST PUSH1 0x0 DUP2 CALLDATALOAD SWAP1 POP PUSH2 0xCB DUP2 PUSH2 0xA5 JUMP JUMPDEST SWAP3 SWAP2 POP POP JUMP JUMPDEST PUSH1 0x0 DUP1 REVERT JUMPDEST PUSH1 0x0 DUP1 REVERT JUMPDEST PUSH1 0x0 DUP1 REVERT JUMPDEST PUSH1 0x0 DUP1 DUP4 PUSH1 0x1F DUP5 ADD SLT PUSH2 0xF6 JUMPI PUSH2 0xF5 PUSH2 0xD1 JUMP JUMPDEST JUMPDEST DUP3 CALLDATALOAD SWAP1 POP PUSH8 0xFFFFFFFFFFFFFFFF DUP2 GT ISZERO PUSH2 0x113 JUMPI PUSH2 0x112 PUSH2 0xD6 JUMP JUMPDEST JUMPDEST PUSH1 0x20 DUP4 ADD SWAP2 POP DUP4 PUSH1 0x1 DUP3 MUL DUP4 ADD GT ISZERO PUSH2 0x12F JUMPI PUSH2 0x12E PUSH2 0xDB JUMP JUMPDEST JUMPDEST SWAP3 POP SWAP3 SWAP1 POP JUMP JUMPDEST PUSH1 0x0 DUP1 PUSH1 0x0 DUP1 PUSH1 0x0 PUSH1 0x60 DUP7 DUP9 SUB SLT ISZERO PUSH2 0x152 JUMPI PUSH2 0x151 PUSH2 0x91 JUMP JUMPDEST JUMPDEST PUSH1 0x0 PUSH2 0x160 DUP9 DUP3 DUP10 ADD PUSH2 0xBC JUMP JUMPDEST SWAP6 POP POP PUSH1 0x20 DUP7 ADD CALLDATALOAD PUSH8 0xFFFFFFFFFFFFFFFF DUP2 GT ISZERO PUSH2 0x181 JUMPI PUSH2 0x180 PUSH2 0x96 JUMP JUMPDEST JUMPDEST PUSH2 0x18D DUP9 DUP3 DUP10 ADD PUSH2 0xE0 JUMP JUMPDEST SWAP5 POP SWAP5 POP POP PUSH1 0x40 DUP7 ADD CALLDATALOAD PUSH8 0xFFFFFFFFFFFFFFFF DUP2 GT ISZERO PUSH2 0x1B0 JUMPI PUSH2 0x1AF PUSH2 0x96 JUMP JUMPDEST JUMPDEST PUSH2 0x1BC DUP9 DUP3 DUP10 ADD PUSH2 0xE0 JUMP JUMPDEST SWAP3 POP SWAP3 POP POP SWAP3 SWAP6 POP SWAP3 SWAP6 SWAP1 SWAP4 POP JUMP JUMPDEST PUSH1 0x0 DUP3 DUP3 MSTORE PUSH1 0x20 DUP3 ADD SWAP1 POP SWAP3 SWAP2 POP POP JUMP JUMPDEST DUP3 DUP2 DUP4 CALLDATACOPY PUSH1 0x0 DUP4 DUP4 ADD MSTORE POP POP POP JUMP JUMPDEST PUSH1 0x0 PUSH1 0x1F NOT PUSH1 0x1F DUP4 ADD AND SWAP1 POP SWAP2 SWAP1 POP JUMP JUMPDEST PUSH1 0x0 PUSH2 0x208 DUP4 DUP6 PUSH2 0x1CB JUMP JUMPDEST SWAP4 POP PUSH2 0x215 DUP4 DUP6 DUP5 PUSH2 0x1DC JUMP JUMPDEST PUSH2 0x21E DUP4 PUSH2 0x1EB JUMP JUMPDEST DUP5 ADD SWAP1 POP SWAP4 SWAP3 POP POP POP JUMP JUMPDEST PUSH1 0x0 PUSH1 0x40 DUP3 ADD SWAP1 POP DUP2 DUP2 SUB PUSH1 0x0 DUP4 ADD MSTORE PUSH2 0x244 DUP2 DUP7 DUP9 PUSH2 0x1FC JUMP JUMPDEST SWAP1 POP DUP2 DUP2 SUB PUSH1 0x20 DUP4 ADD MSTORE PUSH2 0x259 DUP2 DUP5 DUP7 PUSH2 0x1FC JUMP JUMPDEST SWAP1 POP SWAP6 SWAP5 POP POP POP POP POP JUMP INVALID LOG2 PUSH5 0x6970667358 0x22 SLT KECCAK256 PUSH20 0xE32BD07AC44426B341196490609E3BAADD7409C9 0xB3 0xA8 SDIV SGT 0xE3 0xEC 0xA5 SWAP16 0xB6 0x4B CALLER PUSH5 0x736F6C6343 STOP ADDMOD EQ STOP CALLER "},"methodIdentifiers":{"commitSummary(uint256,string,string)":"84ad3bac"}},"storageLayout":{"storage":[],"types":null}}}}