{"contracts/MatchSummary/MatchSummary.sol":{"MatchSummary":{"abi":[{"inputs":[],"stateMutability":"nonpayable","type":"constructor"},{"inputs":[],"name":"InvalidInitialization","type":"error"},{"inputs":[],"name":"NotInitializing","type":"error"},{"anonymous":false,"inputs":[{"indexed":false,"internalType":"uint64","name":"version","type":"uint64"}],"name":"Initialized","type":"event"},{"anonymous":false,"inputs":[{"indexed":true,"internalType":"uint256","name":"date","type":"uint256"},{"indexed":false,"internalType":"string","name":"location","type":"string"},{"indexed":true,"internalType":"address","name":"winner","type":"address"}],"name":"MatchCommitted","type":"event"},{"inputs":[{"internalType":"uint256","name":"date","type":"uint256"},{"internalType":"string","name":"location","type":"string"},{"internalType":"address","name":"winner","type":"address"}],"name":"commitSummary","outputs":[],"stateMutability":"nonpayable","type":"function"},{"inputs":[],"name":"initialize","outputs":[],"stateMutability":"nonpayable","type":"function"}],"evm":{"bytecode":{"linkReferences":{},"object":"608060405234801561001057600080fd5b5061001f61002460201b60201c565b6101ab565b600061003461012860201b60201c565b90508060000160089054906101000a900460ff161561007f576040517ff92ee8a900000000000000000000000000000000000000000000000000000000815260040160405180910390fd5b67ffffffffffffffff80168160000160009054906101000a900467ffffffffffffffff1667ffffffffffffffff16146101255767ffffffffffffffff8160000160006101000a81548167ffffffffffffffff021916908367ffffffffffffffff1602179055507fc7f505b2f371ae2175ee4913f4499e1f2633a7b5936321eed1cdaeb6115181d267ffffffffffffffff60405161011c9190610190565b60405180910390a15b50565b60008061013961014260201b60201c565b90508091505090565b60007ff0c57e16840df040f15088dc2f81fe391c3923bec73e23a9662efc9c229c6a0060001b905090565b600067ffffffffffffffff82169050919050565b61018a8161016d565b82525050565b60006020820190506101a56000830184610181565b92915050565b61051f806101ba6000396000f3fe608060405234801561001057600080fd5b50600436106100365760003560e01c80638129fc1c1461003b5780639b6d00c414610045575b600080fd5b610043610061565b005b61005f600480360381019061005a919061037f565b6101e6565b005b600061006b61023d565b905060008160000160089054906101000a900460ff1615905060008260000160009054906101000a900467ffffffffffffffff1690506000808267ffffffffffffffff161480156100b95750825b9050600060018367ffffffffffffffff161480156100ee575060003073ffffffffffffffffffffffffffffffffffffffff163b145b9050811580156100fc575080155b15610133576040517ff92ee8a900000000000000000000000000000000000000000000000000000000815260040160405180910390fd5b60018560000160006101000a81548167ffffffffffffffff021916908367ffffffffffffffff16021790555083156101835760018560000160086101000a81548160ff0219169083151502179055505b83156101df5760008560000160086101000a81548160ff0219169083151502179055507fc7f505b2f371ae2175ee4913f4499e1f2633a7b5936321eed1cdaeb6115181d260016040516101d6919061044c565b60405180910390a15b5050505050565b8073ffffffffffffffffffffffffffffffffffffffff16847f0e73290770f76fb73e9239666ab1d15857d0a5e05c099bacb1f6653b9fa59392858560405161022f9291906104c5565b60405180910390a350505050565b600080610248610251565b90508091505090565b60007ff0c57e16840df040f15088dc2f81fe391c3923bec73e23a9662efc9c229c6a0060001b905090565b600080fd5b600080fd5b6000819050919050565b61029981610286565b81146102a457600080fd5b50565b6000813590506102b681610290565b92915050565b600080fd5b600080fd5b600080fd5b60008083601f8401126102e1576102e06102bc565b5b8235905067ffffffffffffffff8111156102fe576102fd6102c1565b5b60208301915083600182028301111561031a576103196102c6565b5b9250929050565b600073ffffffffffffffffffffffffffffffffffffffff82169050919050565b600061034c82610321565b9050919050565b61035c81610341565b811461036757600080fd5b50565b60008135905061037981610353565b92915050565b600080600080606085870312156103995761039861027c565b5b60006103a7878288016102a7565b945050602085013567ffffffffffffffff8111156103c8576103c7610281565b5b6103d4878288016102cb565b935093505060406103e78782880161036a565b91505092959194509250565b6000819050919050565b600067ffffffffffffffff82169050919050565b6000819050919050565b600061043661043161042c846103f3565b610411565b6103fd565b9050919050565b6104468161041b565b82525050565b6000602082019050610461600083018461043d565b92915050565b600082825260208201905092915050565b82818337600083830152505050565b6000601f19601f8301169050919050565b60006104a48385610467565b93506104b1838584610478565b6104ba83610487565b840190509392505050565b600060208201905081810360008301526104e0818486610498565b9050939250505056fea2646970667358221220b0c10ecb767b1fed7a12587667b40df88c9a53952d2fb386aa3d8e745b48017964736f6c63430008140033","opcodes":"PUSH1 0x80 PUSH1 0x40 MSTORE CALLVALUE DUP1 ISZERO PUSH2 0x10 JUMPI PUSH1 0x0 DUP1 REVERT JUMPDEST POP PUSH2 0x1F PUSH2 0x24 PUSH1 0x20 SHL PUSH1 0x20 SHR JUMP JUMPDEST PUSH2 0x1AB JUMP JUMPDEST PUSH1 0x0 PUSH2 0x34 PUSH2 0x128 PUSH1 0x20 SHL PUSH1 0x20 SHR JUMP JUMPDEST SWAP1 POP DUP1 PUSH1 0x0 ADD PUSH1 0x8 SWAP1 SLOAD SWAP1 PUSH2 0x100 EXP SWAP1 DIV PUSH1 0xFF AND ISZERO PUSH2 0x7F JUMPI PUSH1 0x40 MLOAD PUSH32 0xF92EE8A900000000000000000000000000000000000000000000000000000000 DUP2 MSTORE PUSH1 0x4 ADD PUSH1 0x40 MLOAD DUP1 SWAP2 SUB SWAP1 REVERT JUMPDEST PUSH8 0xFFFFFFFFFFFFFFFF DUP1 AND DUP2 PUSH1 0x0 ADD PUSH1 0x0 SWAP1 SLOAD SWAP1 PUSH2 0x100 EXP SWAP1 DIV PUSH8 0xFFFFFFFFFFFFFFFF AND PUSH8 0xFFFFFFFFFFFFFFFF AND EQ PUSH2 0x125 JUMPI PUSH8 0xFFFFFFFFFFFFFFFF DUP2 PUSH1 0x0 ADD PUSH1 0x0 PUSH2 0x100 EXP DUP2 SLOAD DUP2 PUSH8 0xFFFFFFFFFFFFFFFF MUL NOT AND SWAP1 DUP4 PUSH8 0xFFFFFFFFFFFFFFFF AND MUL OR SWAP1 SSTORE POP PUSH32 0xC7F505B2F371AE2175EE4913F4499E1F2633A7B5936321EED1CDAEB6115181D2 PUSH8 0xFFFFFFFFFFFFFFFF PUSH1 0x40 MLOAD PUSH2 0x11C SWAP2 SWAP1 PUSH2 0x190 JUMP JUMPDEST PUSH1 0x40 MLOAD DUP1 SWAP2 SUB SWAP1 LOG1 JUMPDEST POP JUMP JUMPDEST PUSH1 0x0 DUP1 PUSH2 0x139 PUSH2 0x142 PUSH1 0x20 SHL PUSH1 0x20 SHR JUMP JUMPDEST SWAP1 POP DUP1 SWAP2 POP POP SWAP1 JUMP JUMPDEST PUSH1 0x0 PUSH32 0xF0C57E16840DF040F15088DC2F81FE391C3923BEC73E23A9662EFC9C229C6A00 PUSH1 0x0 SHL SWAP1 POP SWAP1 JUMP JUMPDEST PUSH1 0x0 PUSH8 0xFFFFFFFFFFFFFFFF DUP3 AND SWAP1 POP SWAP2 SWAP1 POP JUMP JUMPDEST PUSH2 0x18A DUP2 PUSH2 0x16D JUMP JUMPDEST DUP3 MSTORE POP POP JUMP JUMPDEST PUSH1 0x0 PUSH1 0x20 DUP3 ADD SWAP1 POP PUSH2 0x1A5 PUSH1 0x0 DUP4 ADD DUP5 PUSH2 0x181 JUMP JUMPDEST SWAP3 SWAP2 POP POP JUMP JUMPDEST PUSH2 0x51F DUP1 PUSH2 0x1BA PUSH1 0x0 CODECOPY PUSH1 0x0 RETURN INVALID PUSH1 0x80 PUSH1 0x40 MSTORE CALLVALUE DUP1 ISZERO PUSH2 0x10 JUMPI PUSH1 0x0 DUP1 REVERT JUMPDEST POP PUSH1 0x4 CALLDATASIZE LT PUSH2 0x36 JUMPI PUSH1 0x0 CALLDATALOAD PUSH1 0xE0 SHR DUP1 PUSH4 0x8129FC1C EQ PUSH2 0x3B JUMPI DUP1 PUSH4 0x9B6D00C4 EQ PUSH2 0x45 JUMPI JUMPDEST PUSH1 0x0 DUP1 REVERT JUMPDEST PUSH2 0x43 PUSH2 0x61 JUMP JUMPDEST STOP JUMPDEST PUSH2 0x5F PUSH1 0x4 DUP1 CALLDATASIZE SUB DUP2 ADD SWAP1 PUSH2 0x5A SWAP2 SWAP1 PUSH2 0x37F JUMP JUMPDEST PUSH2 0x1E6 JUMP JUMPDEST STOP JUMPDEST PUSH1 0x0 PUSH2 0x6B PUSH2 0x23D JUMP JUMPDEST SWAP1 POP PUSH1 0x0 DUP2 PUSH1 0x0 ADD PUSH1 0x8 SWAP1 SLOAD SWAP1 PUSH2 0x100 EXP SWAP1 DIV PUSH1 0xFF AND ISZERO SWAP1 POP PUSH1 0x0 DUP3 PUSH1 0x0 ADD PUSH1 0x0 SWAP1 SLOAD SWAP1 PUSH2 0x100 EXP SWAP1 DIV PUSH8 0xFFFFFFFFFFFFFFFF AND SWAP1 POP PUSH1 0x0 DUP1 DUP3 PUSH8 0xFFFFFFFFFFFFFFFF AND EQ DUP1 ISZERO PUSH2 0xB9 JUMPI POP DUP3 JUMPDEST SWAP1 POP PUSH1 0x0 PUSH1 0x1 DUP4 PUSH8 0xFFFFFFFFFFFFFFFF AND EQ DUP1 ISZERO PUSH2 0xEE JUMPI POP PUSH1 0x0 ADDRESS PUSH20 0xFFFFFFFFFFFFFFFFFFFFFFFFFFFFFFFFFFFFFFFF AND EXTCODESIZE EQ JUMPDEST SWAP1 POP DUP2 ISZERO DUP1 ISZERO PUSH2 0xFC JUMPI POP DUP1 ISZERO JUMPDEST ISZERO PUSH2 0x133 JUMPI PUSH1 0x40 MLOAD PUSH32 0xF92EE8A900000000000000000000000000000000000000000000000000000000 DUP2 MSTORE PUSH1 0x4 ADD PUSH1 0x40 MLOAD DUP1 SWAP2 SUB SWAP1 REVERT JUMPDEST PUSH1 0x1 DUP6 PUSH1 0x0 ADD PUSH1 0x0 PUSH2 0x100 EXP DUP2 SLOAD DUP2 PUSH8 0xFFFFFFFFFFFFFFFF MUL NOT AND SWAP1 DUP4 PUSH8 0xFFFFFFFFFFFFFFFF AND MUL OR SWAP1 SSTORE POP DUP4 ISZERO PUSH2 0x183 JUMPI PUSH1 0x1 DUP6 PUSH1 0x0 ADD PUSH1 0x8 PUSH2 0x100 EXP DUP2 SLOAD DUP2 PUSH1 0xFF MUL NOT AND SWAP1 DUP4 ISZERO ISZERO MUL OR SWAP1 SSTORE POP JUMPDEST DUP4 ISZERO PUSH2 0x1DF JUMPI PUSH1 0x0 DUP6 PUSH1 0x0 ADD PUSH1 0x8 PUSH2 0x100 EXP DUP2 SLOAD DUP2 PUSH1 0xFF MUL NOT AND SWAP1 DUP4 ISZERO ISZERO MUL OR SWAP1 SSTORE POP PUSH32 0xC7F505B2F371AE2175EE4913F4499E1F2633A7B5936321EED1CDAEB6115181D2 PUSH1 0x1 PUSH1 0x40 MLOAD PUSH2 0x1D6 SWAP2 SWAP1 PUSH2 0x44C JUMP JUMPDEST PUSH1 0x40 MLOAD DUP1 SWAP2 SUB SWAP1 LOG1 JUMPDEST POP POP POP POP POP JUMP JUMPDEST DUP1 PUSH20 0xFFFFFFFFFFFFFFFFFFFFFFFFFFFFFFFFFFFFFFFF AND DUP5 PUSH32 0xE73290770F76FB73E9239666AB1D15857D0A5E05C099BACB1F6653B9FA59392 DUP6 DUP6 PUSH1 0x40 MLOAD PUSH2 0x22F SWAP3 SWAP2 SWAP1 PUSH2 0x4C5 JUMP JUMPDEST PUSH1 0x40 MLOAD DUP1 SWAP2 SUB SWAP1 LOG3 POP POP POP POP JUMP JUMPDEST PUSH1 0x0 DUP1 PUSH2 0x248 PUSH2 0x251 JUMP JUMPDEST SWAP1 POP DUP1 SWAP2 POP POP SWAP1 JUMP JUMPDEST PUSH1 0x0 PUSH32 0xF0C57E16840DF040F15088DC2F81FE391C3923BEC73E23A9662EFC9C229C6A00 PUSH1 0x0 SHL SWAP1 POP SWAP1 JUMP JUMPDEST PUSH1 0x0 DUP1 REVERT JUMPDEST PUSH1 0x0 DUP1 REVERT JUMPDEST PUSH1 0x0 DUP2 SWAP1 POP SWAP2 SWAP1 POP JUMP JUMPDEST PUSH2 0x299 DUP2 PUSH2 0x286 JUMP JUMPDEST DUP2 EQ PUSH2 0x2A4 JUMPI PUSH1 0x0 DUP1 REVERT JUMPDEST POP JUMP JUMPDEST PUSH1 0x0 DUP2 CALLDATALOAD SWAP1 POP PUSH2 0x2B6 DUP2 PUSH2 0x290 JUMP JUMPDEST SWAP3 SWAP2 POP POP JUMP JUMPDEST PUSH1 0x0 DUP1 REVERT JUMPDEST PUSH1 0x0 DUP1 REVERT JUMPDEST PUSH1 0x0 DUP1 REVERT JUMPDEST PUSH1 0x0 DUP1 DUP4 PUSH1 0x1F DUP5 ADD SLT PUSH2 0x2E1 JUMPI PUSH2 0x2E0 PUSH2 0x2BC JUMP JUMPDEST JUMPDEST DUP3 CALLDATALOAD SWAP1 POP PUSH8 0xFFFFFFFFFFFFFFFF DUP2 GT ISZERO PUSH2 0x2FE JUMPI PUSH2 0x2FD PUSH2 0x2C1 JUMP JUMPDEST JUMPDEST PUSH1 0x20 DUP4 ADD SWAP2 POP DUP4 PUSH1 0x1 DUP3 MUL DUP4 ADD GT ISZERO PUSH2 0x31A JUMPI PUSH2 0x319 PUSH2 0x2C6 JUMP JUMPDEST JUMPDEST SWAP3 POP SWAP3 SWAP1 POP JUMP JUMPDEST PUSH1 0x0 PUSH20 0xFFFFFFFFFFFFFFFFFFFFFFFFFFFFFFFFFFFFFFFF DUP3 AND SWAP1 POP SWAP2 SWAP1 POP JUMP JUMPDEST PUSH1 0x0 PUSH2 0x34C DUP3 PUSH2 0x321 JUMP JUMPDEST SWAP1 POP SWAP2 SWAP1 POP JUMP JUMPDEST PUSH2 0x35C DUP2 PUSH2 0x341 JUMP JUMPDEST DUP2 EQ PUSH2 0x367 JUMPI PUSH1 0x0 DUP1 REVERT JUMPDEST POP JUMP JUMPDEST PUSH1 0x0 DUP2 CALLDATALOAD SWAP1 POP PUSH2 0x379 DUP2 PUSH2 0x353 JUMP JUMPDEST SWAP3 SWAP2 POP POP JUMP JUMPDEST PUSH1 0x0 DUP1 PUSH1 0x0 DUP1 PUSH1 0x60 DUP6 DUP8 SUB SLT ISZERO PUSH2 0x399 JUMPI PUSH2 0x398 PUSH2 0x27C JUMP JUMPDEST JUMPDEST PUSH1 0x0 PUSH2 0x3A7 DUP8 DUP3 DUP9 ADD PUSH2 0x2A7 JUMP JUMPDEST SWAP5 POP POP PUSH1 0x20 DUP6 ADD CALLDATALOAD PUSH8 0xFFFFFFFFFFFFFFFF DUP2 GT ISZERO PUSH2 0x3C8 JUMPI PUSH2 0x3C7 PUSH2 0x281 JUMP JUMPDEST JUMPDEST PUSH2 0x3D4 DUP8 DUP3 DUP9 ADD PUSH2 0x2CB JUMP JUMPDEST SWAP4 POP SWAP4 POP POP PUSH1 0x40 PUSH2 0x3E7 DUP8 DUP3 DUP9 ADD PUSH2 0x36A JUMP JUMPDEST SWAP2 POP POP SWAP3 SWAP6 SWAP2 SWAP5 POP SWAP3 POP JUMP JUMPDEST PUSH1 0x0 DUP2 SWAP1 POP SWAP2 SWAP1 POP JUMP JUMPDEST PUSH1 0x0 PUSH8 0xFFFFFFFFFFFFFFFF DUP3 AND SWAP1 POP SWAP2 SWAP1 POP JUMP JUMPDEST PUSH1 0x0 DUP2 SWAP1 POP SWAP2 SWAP1 POP JUMP JUMPDEST PUSH1 0x0 PUSH2 0x436 PUSH2 0x431 PUSH2 0x42C DUP5 PUSH2 0x3F3 JUMP JUMPDEST PUSH2 0x411 JUMP JUMPDEST PUSH2 0x3FD JUMP JUMPDEST SWAP1 POP SWAP2 SWAP1 POP JUMP JUMPDEST PUSH2 0x446 DUP2 PUSH2 0x41B JUMP JUMPDEST DUP3 MSTORE POP POP JUMP JUMPDEST PUSH1 0x0 PUSH1 0x20 DUP3 ADD SWAP1 POP PUSH2 0x461 PUSH1 0x0 DUP4 ADD DUP5 PUSH2 0x43D JUMP JUMPDEST SWAP3 SWAP2 POP POP JUMP JUMPDEST PUSH1 0x0 DUP3 DUP3 MSTORE PUSH1 0x20 DUP3 ADD SWAP1 POP SWAP3 SWAP2 POP POP JUMP JUMPDEST DUP3 DUP2 DUP4 CALLDATACOPY PUSH1 0x0 DUP4 DUP4 ADD MSTORE POP POP POP JUMP JUMPDEST PUSH1 0x0 PUSH1 0x1F NOT PUSH1 0x1F DUP4 ADD AND SWAP1 POP SWAP2 SWAP1 POP JUMP JUMPDEST PUSH1 0x0 PUSH2 0x4A4 DUP4 DUP6 PUSH2 0x467 JUMP JUMPDEST SWAP4 POP PUSH2 0x4B1 DUP4 DUP6 DUP5 PUSH2 0x478 JUMP JUMPDEST PUSH2 0x4BA DUP4 PUSH2 0x487 JUMP JUMPDEST DUP5 ADD SWAP1 POP SWAP4 SWAP3 POP POP POP JUMP JUMPDEST PUSH1 0x0 PUSH1 0x20 DUP3 ADD SWAP1 POP DUP2 DUP2 SUB PUSH1 0x0 DUP4 ADD MSTORE PUSH2 0x4E0 DUP2 DUP5 DUP7 PUSH2 0x498 JUMP JUMPDEST SWAP1 POP SWAP4 SWAP3 POP POP POP JUMP INVALID LOG2 PUSH5 0x6970667358 0x22 SLT KECCAK256 0xB0 0xC1 0xE 0xCB PUSH23 0x7B1FED7A12587667B40DF88C9A53952D2FB386AA3D8E74 JUMPDEST BASEFEE ADD PUSH26 0x64736F6C63430008140033000000000000000000000000000000 "},"methodIdentifiers":{"commitSummary(uint256,string,address)":"9b6d00c4","initialize()":"8129fc1c"}},"storageLayout":{"storage":[],"types":null}}}}