{
  "_format": "hh-sol-artifact-1",
  "contractName": "PSGSeason20242025",
  "sourceName": "contracts/PSGSeason2024-2025/PSGSeason2024-2025.sol",
  "abi": [
    {
      "inputs": [
        {
          "internalType": "string",
          "name": "_name",
          "type": "string"
        },
        {
          "internalType": "address",
          "name": "initialOwner",
          "type": "address"
        }
      ],
      "stateMutability": "nonpayable",
      "type": "constructor"
    },
    {
      "inputs": [
        {
          "internalType": "address",
          "name": "sender",
          "type": "address"
        },
        {
          "internalType": "uint256",
          "name": "balance",
          "type": "uint256"
        },
        {
          "internalType": "uint256",
          "name": "needed",
          "type": "uint256"
        },
        {
          "internalType": "uint256",
          "name": "tokenId",
          "type": "uint256"
        }
      ],
      "name": "ERC1155InsufficientBalance",
      "type": "error"
    },
    {
      "inputs": [
        {
          "internalType": "address",
          "name": "approver",
          "type": "address"
        }
      ],
      "name": "ERC1155InvalidApprover",
      "type": "error"
    },
    {
      "inputs": [
        {
          "internalType": "uint256",
          "name": "idsLength",
          "type": "uint256"
        },
        {
          "internalType": "uint256",
          "name": "valuesLength",
          "type": "uint256"
        }
      ],
      "name": "ERC1155InvalidArrayLength",
      "type": "error"
    },
    {
      "inputs": [
        {
          "internalType": "address",
          "name": "operator",
          "type": "address"
        }
      ],
      "name": "ERC1155InvalidOperator",
      "type": "error"
    },
    {
      "inputs": [
        {
          "internalType": "address",
          "name": "receiver",
          "type": "address"
        }
      ],
      "name": "ERC1155InvalidReceiver",
      "type": "error"
    },
    {
      "inputs": [
        {
          "internalType": "address",
          "name": "sender",
          "type": "address"
        }
      ],
      "name": "ERC1155InvalidSender",
      "type": "error"
    },
    {
      "inputs": [
        {
          "internalType": "address",
          "name": "operator",
          "type": "address"
        },
        {
          "internalType": "address",
          "name": "owner",
          "type": "address"
        }
      ],
      "name": "ERC1155MissingApprovalForAll",
      "type": "error"
    },
    {
      "inputs": [
        {
          "internalType": "address",
          "name": "owner",
          "type": "address"
        }
      ],
      "name": "OwnableInvalidOwner",
      "type": "error"
    },
    {
      "inputs": [
        {
          "internalType": "address",
          "name": "account",
          "type": "address"
        }
      ],
      "name": "OwnableUnauthorizedAccount",
      "type": "error"
    },
    {
      "anonymous": false,
      "inputs": [
        {
          "indexed": true,
          "internalType": "address",
          "name": "account",
          "type": "address"
        },
        {
          "indexed": true,
          "internalType": "address",
          "name": "operator",
          "type": "address"
        },
        {
          "indexed": false,
          "internalType": "bool",
          "name": "approved",
          "type": "bool"
        }
      ],
      "name": "ApprovalForAll",
      "type": "event"
    },
    {
      "anonymous": false,
      "inputs": [
        {
          "indexed": true,
          "internalType": "address",
          "name": "previousOwner",
          "type": "address"
        },
        {
          "indexed": true,
          "internalType": "address",
          "name": "newOwner",
          "type": "address"
        }
      ],
      "name": "OwnershipTransferred",
      "type": "event"
    },
    {
      "anonymous": false,
      "inputs": [
        {
          "indexed": true,
          "internalType": "address",
          "name": "operator",
          "type": "address"
        },
        {
          "indexed": true,
          "internalType": "address",
          "name": "from",
          "type": "address"
        },
        {
          "indexed": true,
          "internalType": "address",
          "name": "to",
          "type": "address"
        },
        {
          "indexed": false,
          "internalType": "uint256[]",
          "name": "ids",
          "type": "uint256[]"
        },
        {
          "indexed": false,
          "internalType": "uint256[]",
          "name": "values",
          "type": "uint256[]"
        }
      ],
      "name": "TransferBatch",
      "type": "event"
    },
    {
      "anonymous": false,
      "inputs": [
        {
          "indexed": true,
          "internalType": "address",
          "name": "operator",
          "type": "address"
        },
        {
          "indexed": true,
          "internalType": "address",
          "name": "from",
          "type": "address"
        },
        {
          "indexed": true,
          "internalType": "address",
          "name": "to",
          "type": "address"
        },
        {
          "indexed": false,
          "internalType": "uint256",
          "name": "id",
          "type": "uint256"
        },
        {
          "indexed": false,
          "internalType": "uint256",
          "name": "value",
          "type": "uint256"
        }
      ],
      "name": "TransferSingle",
      "type": "event"
    },
    {
      "anonymous": false,
      "inputs": [
        {
          "indexed": false,
          "internalType": "string",
          "name": "value",
          "type": "string"
        },
        {
          "indexed": true,
          "internalType": "uint256",
          "name": "id",
          "type": "uint256"
        }
      ],
      "name": "URI",
      "type": "event"
    },
    {
      "inputs": [
        {
          "internalType": "address",
          "name": "account",
          "type": "address"
        },
        {
          "internalType": "uint256",
          "name": "id",
          "type": "uint256"
        }
      ],
      "name": "balanceOf",
      "outputs": [
        {
          "internalType": "uint256",
          "name": "",
          "type": "uint256"
        }
      ],
      "stateMutability": "view",
      "type": "function"
    },
    {
      "inputs": [
        {
          "internalType": "address[]",
          "name": "accounts",
          "type": "address[]"
        },
        {
          "internalType": "uint256[]",
          "name": "ids",
          "type": "uint256[]"
        }
      ],
      "name": "balanceOfBatch",
      "outputs": [
        {
          "internalType": "uint256[]",
          "name": "",
          "type": "uint256[]"
        }
      ],
      "stateMutability": "view",
      "type": "function"
    },
    {
      "inputs": [
        {
          "internalType": "address",
          "name": "account",
          "type": "address"
        },
        {
          "internalType": "address",
          "name": "operator",
          "type": "address"
        }
      ],
      "name": "isApprovedForAll",
      "outputs": [
        {
          "internalType": "bool",
          "name": "",
          "type": "bool"
        }
      ],
      "stateMutability": "view",
      "type": "function"
    },
    {
      "inputs": [
        {
          "internalType": "address",
          "name": "to",
          "type": "address"
        },
        {
          "internalType": "uint256",
          "name": "id",
          "type": "uint256"
        },
        {
          "internalType": "uint256",
          "name": "amount",
          "type": "uint256"
        },
        {
          "internalType": "bytes",
          "name": "data",
          "type": "bytes"
        }
      ],
      "name": "mint",
      "outputs": [],
      "stateMutability": "nonpayable",
      "type": "function"
    },
    {
      "inputs": [],
      "name": "name",
      "outputs": [
        {
          "internalType": "string",
          "name": "",
          "type": "string"
        }
      ],
      "stateMutability": "view",
      "type": "function"
    },
    {
      "inputs": [],
      "name": "owner",
      "outputs": [
        {
          "internalType": "address",
          "name": "",
          "type": "address"
        }
      ],
      "stateMutability": "view",
      "type": "function"
    },
    {
      "inputs": [],
      "name": "renounceOwnership",
      "outputs": [],
      "stateMutability": "nonpayable",
      "type": "function"
    },
    {
      "inputs": [
        {
          "internalType": "address",
          "name": "from",
          "type": "address"
        },
        {
          "internalType": "address",
          "name": "to",
          "type": "address"
        },
        {
          "internalType": "uint256[]",
          "name": "ids",
          "type": "uint256[]"
        },
        {
          "internalType": "uint256[]",
          "name": "values",
          "type": "uint256[]"
        },
        {
          "internalType": "bytes",
          "name": "data",
          "type": "bytes"
        }
      ],
      "name": "safeBatchTransferFrom",
      "outputs": [],
      "stateMutability": "nonpayable",
      "type": "function"
    },
    {
      "inputs": [
        {
          "internalType": "address",
          "name": "from",
          "type": "address"
        },
        {
          "internalType": "address",
          "name": "to",
          "type": "address"
        },
        {
          "internalType": "uint256",
          "name": "id",
          "type": "uint256"
        },
        {
          "internalType": "uint256",
          "name": "value",
          "type": "uint256"
        },
        {
          "internalType": "bytes",
          "name": "data",
          "type": "bytes"
        }
      ],
      "name": "safeTransferFrom",
      "outputs": [],
      "stateMutability": "nonpayable",
      "type": "function"
    },
    {
      "inputs": [
        {
          "internalType": "address",
          "name": "operator",
          "type": "address"
        },
        {
          "internalType": "bool",
          "name": "approved",
          "type": "bool"
        }
      ],
      "name": "setApprovalForAll",
      "outputs": [],
      "stateMutability": "nonpayable",
      "type": "function"
    },
    {
      "inputs": [
        {
          "internalType": "uint256",
          "name": "tokenId",
          "type": "uint256"
        },
        {
          "internalType": "string",
          "name": "tokenURI",
          "type": "string"
        }
      ],
      "name": "setTokenURI",
      "outputs": [],
      "stateMutability": "nonpayable",
      "type": "function"
    },
    {
      "inputs": [
        {
          "internalType": "bytes4",
          "name": "interfaceId",
          "type": "bytes4"
        }
      ],
      "name": "supportsInterface",
      "outputs": [
        {
          "internalType": "bool",
          "name": "",
          "type": "bool"
        }
      ],
      "stateMutability": "view",
      "type": "function"
    },
    {
      "inputs": [
        {
          "internalType": "address",
          "name": "newOwner",
          "type": "address"
        }
      ],
      "name": "transferOwnership",
      "outputs": [],
      "stateMutability": "nonpayable",
      "type": "function"
    },
    {
      "inputs": [
        {
          "internalType": "uint256",
          "name": "tokenId",
          "type": "uint256"
        }
      ],
      "name": "uri",
      "outputs": [
        {
          "internalType": "string",
          "name": "",
          "type": "string"
        }
      ],
      "stateMutability": "view",
      "type": "function"
    }
  ],
  "bytecode": "0x60806040523480156200001157600080fd5b5060405162003182380380620031828339818101604052810190620000379190620003f4565b806040518060400160405280601481526020017f68747470733a2f2f6578616d706c652e636f6d2f0000000000000000000000008152506200007f816200012160201b60201c565b50600073ffffffffffffffffffffffffffffffffffffffff168173ffffffffffffffffffffffffffffffffffffffff1603620000f55760006040517f1e4fbdf7000000000000000000000000000000000000000000000000000000008152600401620000ec91906200046b565b60405180910390fd5b62000106816200013660201b60201c565b508160049081620001189190620006d3565b505050620007ba565b8060029081620001329190620006d3565b5050565b6000600360009054906101000a900473ffffffffffffffffffffffffffffffffffffffff16905081600360006101000a81548173ffffffffffffffffffffffffffffffffffffffff021916908373ffffffffffffffffffffffffffffffffffffffff1602179055508173ffffffffffffffffffffffffffffffffffffffff168173ffffffffffffffffffffffffffffffffffffffff167f8be0079c531659141344cd1fd0a4f28419497f9722a3daafe3b4186f6b6457e060405160405180910390a35050565b6000604051905090565b600080fd5b600080fd5b600080fd5b600080fd5b6000601f19601f8301169050919050565b7f4e487b7100000000000000000000000000000000000000000000000000000000600052604160045260246000fd5b62000265826200021a565b810181811067ffffffffffffffff821117156200028757620002866200022b565b5b80604052505050565b60006200029c620001fc565b9050620002aa82826200025a565b919050565b600067ffffffffffffffff821115620002cd57620002cc6200022b565b5b620002d8826200021a565b9050602081019050919050565b60005b8381101562000305578082015181840152602081019050620002e8565b60008484015250505050565b6000620003286200032284620002af565b62000290565b90508281526020810184848401111562000347576200034662000215565b5b62000354848285620002e5565b509392505050565b600082601f83011262000374576200037362000210565b5b81516200038684826020860162000311565b91505092915050565b600073ffffffffffffffffffffffffffffffffffffffff82169050919050565b6000620003bc826200038f565b9050919050565b620003ce81620003af565b8114620003da57600080fd5b50565b600081519050620003ee81620003c3565b92915050565b600080604083850312156200040e576200040d62000206565b5b600083015167ffffffffffffffff8111156200042f576200042e6200020b565b5b6200043d858286016200035c565b92505060206200045085828601620003dd565b9150509250929050565b6200046581620003af565b82525050565b60006020820190506200048260008301846200045a565b92915050565b600081519050919050565b7f4e487b7100000000000000000000000000000000000000000000000000000000600052602260045260246000fd5b60006002820490506001821680620004db57607f821691505b602082108103620004f157620004f062000493565b5b50919050565b60008190508160005260206000209050919050565b60006020601f8301049050919050565b600082821b905092915050565b6000600883026200055b7fffffffffffffffffffffffffffffffffffffffffffffffffffffffffffffffff826200051c565b6200056786836200051c565b95508019841693508086168417925050509392505050565b6000819050919050565b6000819050919050565b6000620005b4620005ae620005a8846200057f565b62000589565b6200057f565b9050919050565b6000819050919050565b620005d08362000593565b620005e8620005df82620005bb565b84845462000529565b825550505050565b600090565b620005ff620005f0565b6200060c818484620005c5565b505050565b5b81811015620006345762000628600082620005f5565b60018101905062000612565b5050565b601f82111562000683576200064d81620004f7565b62000658846200050c565b8101602085101562000668578190505b6200068062000677856200050c565b83018262000611565b50505b505050565b600082821c905092915050565b6000620006a86000198460080262000688565b1980831691505092915050565b6000620006c3838362000695565b9150826002028217905092915050565b620006de8262000488565b67ffffffffffffffff811115620006fa57620006f96200022b565b5b620007068254620004c2565b6200071382828562000638565b600060209050601f8311600181146200074b576000841562000736578287015190505b620007428582620006b5565b865550620007b2565b601f1984166200075b86620004f7565b60005b8281101562000785578489015182556001820191506020850194506020810190506200075e565b86831015620007a55784890151620007a1601f89168262000695565b8355505b6001600288020188555050505b505050505050565b6129b880620007ca6000396000f3fe608060405234801561001057600080fd5b50600436106100e95760003560e01c8063715018a61161008c578063a22cb46511610066578063a22cb46514610248578063e985e9c514610264578063f242432a14610294578063f2fde38b146102b0576100e9565b8063715018a614610204578063731133e91461020e5780638da5cb5b1461022a576100e9565b80630e89341c116100c85780630e89341c1461016c578063162094c41461019c5780632eb2c2d6146101b85780634e1273f4146101d4576100e9565b8062fdd58e146100ee57806301ffc9a71461011e57806306fdde031461014e575b600080fd5b610108600480360381019061010391906118c6565b6102cc565b6040516101159190611915565b60405180910390f35b61013860048036038101906101339190611988565b610326565b60405161014591906119d0565b60405180910390f35b610156610408565b6040516101639190611a7b565b60405180910390f35b61018660048036038101906101819190611a9d565b610496565b6040516101939190611a7b565b60405180910390f35b6101b660048036038101906101b19190611bff565b610585565b005b6101d260048036038101906101cd9190611dc4565b6105ea565b005b6101ee60048036038101906101e99190611f56565b610692565b6040516101fb919061208c565b60405180910390f35b61020c6107a1565b005b610228600480360381019061022391906120ae565b6107b5565b005b610232610831565b60405161023f9190612140565b60405180910390f35b610262600480360381019061025d9190612187565b61085b565b005b61027e600480360381019061027991906121c7565b610871565b60405161028b91906119d0565b60405180910390f35b6102ae60048036038101906102a99190612207565b610905565b005b6102ca60048036038101906102c5919061229e565b6109ad565b005b600080600083815260200190815260200160002060008473ffffffffffffffffffffffffffffffffffffffff1673ffffffffffffffffffffffffffffffffffffffff16815260200190815260200160002054905092915050565b60007fd9b67a26000000000000000000000000000000000000000000000000000000007bffffffffffffffffffffffffffffffffffffffffffffffffffffffff1916827bffffffffffffffffffffffffffffffffffffffffffffffffffffffff191614806103f157507f0e89341c000000000000000000000000000000000000000000000000000000007bffffffffffffffffffffffffffffffffffffffffffffffffffffffff1916827bffffffffffffffffffffffffffffffffffffffffffffffffffffffff1916145b80610401575061040082610a33565b5b9050919050565b60048054610415906122fa565b80601f0160208091040260200160405190810160405280929190818152602001828054610441906122fa565b801561048e5780601f106104635761010080835404028352916020019161048e565b820191906000526020600020905b81548152906001019060200180831161047157829003601f168201915b505050505081565b606060006005600084815260200190815260200160002080546104b8906122fa565b80601f01602080910402602001604051908101604052809291908181526020018280546104e4906122fa565b80156105315780601f1061050657610100808354040283529160200191610531565b820191906000526020600020905b81548152906001019060200180831161051457829003601f168201915b50505050509050600081511161057c576040517f08c379a000000000000000000000000000000000000000000000000000000000815260040161057390612377565b60405180910390fd5b80915050919050565b61058d610a9d565b806005600084815260200190815260200160002090816105ad9190612543565b50817f6bb7ff708619ba0610cba295a58592e0451dee2622938c8755667688daf3529b826040516105de9190611a7b565b60405180910390a25050565b60006105f4610b24565b90508073ffffffffffffffffffffffffffffffffffffffff168673ffffffffffffffffffffffffffffffffffffffff161415801561063957506106378682610871565b155b1561067d5780866040517fe237d922000000000000000000000000000000000000000000000000000000008152600401610674929190612615565b60405180910390fd5b61068a8686868686610b2c565b505050505050565b606081518351146106de57815183516040517f5b0599910000000000000000000000000000000000000000000000000000000081526004016106d592919061263e565b60405180910390fd5b6000835167ffffffffffffffff8111156106fb576106fa611ad4565b5b6040519080825280602002602001820160405280156107295781602001602082028036833780820191505090505b50905060005b84518110156107965761076661074e8287610c2490919063ffffffff16565b6107618387610c3890919063ffffffff16565b6102cc565b82828151811061077957610778612667565b5b6020026020010181815250508061078f906126c5565b905061072f565b508091505092915050565b6107a9610a9d565b6107b36000610c4c565b565b6107bd610a9d565b60006005600085815260200190815260200160002080546107dd906122fa565b90501161081f576040517f08c379a000000000000000000000000000000000000000000000000000000000815260040161081690612759565b60405180910390fd5b61082b84848484610d12565b50505050565b6000600360009054906101000a900473ffffffffffffffffffffffffffffffffffffffff16905090565b61086d610866610b24565b8383610dab565b5050565b6000600160008473ffffffffffffffffffffffffffffffffffffffff1673ffffffffffffffffffffffffffffffffffffffff16815260200190815260200160002060008373ffffffffffffffffffffffffffffffffffffffff1673ffffffffffffffffffffffffffffffffffffffff16815260200190815260200160002060009054906101000a900460ff16905092915050565b600061090f610b24565b90508073ffffffffffffffffffffffffffffffffffffffff168673ffffffffffffffffffffffffffffffffffffffff161415801561095457506109528682610871565b155b156109985780866040517fe237d92200000000000000000000000000000000000000000000000000000000815260040161098f929190612615565b60405180910390fd5b6109a58686868686610f1b565b505050505050565b6109b5610a9d565b600073ffffffffffffffffffffffffffffffffffffffff168173ffffffffffffffffffffffffffffffffffffffff1603610a275760006040517f1e4fbdf7000000000000000000000000000000000000000000000000000000008152600401610a1e9190612140565b60405180910390fd5b610a3081610c4c565b50565b60007f01ffc9a7000000000000000000000000000000000000000000000000000000007bffffffffffffffffffffffffffffffffffffffffffffffffffffffff1916827bffffffffffffffffffffffffffffffffffffffffffffffffffffffff1916149050919050565b610aa5610b24565b73ffffffffffffffffffffffffffffffffffffffff16610ac3610831565b73ffffffffffffffffffffffffffffffffffffffff1614610b2257610ae6610b24565b6040517f118cdaa7000000000000000000000000000000000000000000000000000000008152600401610b199190612140565b60405180910390fd5b565b600033905090565b600073ffffffffffffffffffffffffffffffffffffffff168473ffffffffffffffffffffffffffffffffffffffff1603610b9e5760006040517f57f447ce000000000000000000000000000000000000000000000000000000008152600401610b959190612140565b60405180910390fd5b600073ffffffffffffffffffffffffffffffffffffffff168573ffffffffffffffffffffffffffffffffffffffff1603610c105760006040517f01a83514000000000000000000000000000000000000000000000000000000008152600401610c079190612140565b60405180910390fd5b610c1d8585858585611026565b5050505050565b600060208202602084010151905092915050565b600060208202602084010151905092915050565b6000600360009054906101000a900473ffffffffffffffffffffffffffffffffffffffff16905081600360006101000a81548173ffffffffffffffffffffffffffffffffffffffff021916908373ffffffffffffffffffffffffffffffffffffffff1602179055508173ffffffffffffffffffffffffffffffffffffffff168173ffffffffffffffffffffffffffffffffffffffff167f8be0079c531659141344cd1fd0a4f28419497f9722a3daafe3b4186f6b6457e060405160405180910390a35050565b600073ffffffffffffffffffffffffffffffffffffffff168473ffffffffffffffffffffffffffffffffffffffff1603610d845760006040517f57f447ce000000000000000000000000000000000000000000000000000000008152600401610d7b9190612140565b60405180910390fd5b600080610d9185856110d8565b91509150610da3600087848487611026565b505050505050565b600073ffffffffffffffffffffffffffffffffffffffff168273ffffffffffffffffffffffffffffffffffffffff1603610e1d5760006040517fced3e100000000000000000000000000000000000000000000000000000000008152600401610e149190612140565b60405180910390fd5b80600160008573ffffffffffffffffffffffffffffffffffffffff1673ffffffffffffffffffffffffffffffffffffffff16815260200190815260200160002060008473ffffffffffffffffffffffffffffffffffffffff1673ffffffffffffffffffffffffffffffffffffffff16815260200190815260200160002060006101000a81548160ff0219169083151502179055508173ffffffffffffffffffffffffffffffffffffffff168373ffffffffffffffffffffffffffffffffffffffff167f17307eab39ab6107e8899845ad3d59bd9653f200f220920489ca2b5937696c3183604051610f0e91906119d0565b60405180910390a3505050565b600073ffffffffffffffffffffffffffffffffffffffff168473ffffffffffffffffffffffffffffffffffffffff1603610f8d5760006040517f57f447ce000000000000000000000000000000000000000000000000000000008152600401610f849190612140565b60405180910390fd5b600073ffffffffffffffffffffffffffffffffffffffff168573ffffffffffffffffffffffffffffffffffffffff1603610fff5760006040517f01a83514000000000000000000000000000000000000000000000000000000008152600401610ff69190612140565b60405180910390fd5b60008061100c85856110d8565b9150915061101d8787848487611026565b50505050505050565b61103285858585611108565b600073ffffffffffffffffffffffffffffffffffffffff168473ffffffffffffffffffffffffffffffffffffffff16146110d1576000611070610b24565b905060018451036110c0576000611091600086610c3890919063ffffffff16565b905060006110a9600086610c3890919063ffffffff16565b90506110b98389898585896114b6565b50506110cf565b6110ce81878787878761166a565b5b505b5050505050565b60608060405191506001825283602083015260408201905060018152826020820152604081016040529250929050565b805182511461115257815181516040517f5b05999100000000000000000000000000000000000000000000000000000000815260040161114992919061263e565b60405180910390fd5b600061115c610b24565b905060005b835181101561137157600061117f8286610c3890919063ffffffff16565b905060006111968386610c3890919063ffffffff16565b9050600073ffffffffffffffffffffffffffffffffffffffff168873ffffffffffffffffffffffffffffffffffffffff16146112c357600080600084815260200190815260200160002060008a73ffffffffffffffffffffffffffffffffffffffff1673ffffffffffffffffffffffffffffffffffffffff1681526020019081526020016000205490508181101561126b57888183856040517f03dee4c50000000000000000000000000000000000000000000000000000000081526004016112629493929190612779565b60405180910390fd5b81810360008085815260200190815260200160002060008b73ffffffffffffffffffffffffffffffffffffffff1673ffffffffffffffffffffffffffffffffffffffff16815260200190815260200160002081905550505b600073ffffffffffffffffffffffffffffffffffffffff168773ffffffffffffffffffffffffffffffffffffffff161461135e578060008084815260200190815260200160002060008973ffffffffffffffffffffffffffffffffffffffff1673ffffffffffffffffffffffffffffffffffffffff168152602001908152602001600020600082825461135691906127be565b925050819055505b50508061136a906126c5565b9050611161565b506001835103611430576000611391600085610c3890919063ffffffff16565b905060006113a9600085610c3890919063ffffffff16565b90508573ffffffffffffffffffffffffffffffffffffffff168773ffffffffffffffffffffffffffffffffffffffff168473ffffffffffffffffffffffffffffffffffffffff167fc3d58168c5ae7397731d063d5bbf3d657854427343f4c083240f7aacaa2d0f62858560405161142192919061263e565b60405180910390a450506114af565b8373ffffffffffffffffffffffffffffffffffffffff168573ffffffffffffffffffffffffffffffffffffffff168273ffffffffffffffffffffffffffffffffffffffff167f4a39dc06d4c0dbc64b70af90fd698a233a518aa5d07e595d983b8c0526c8f7fb86866040516114a69291906127f2565b60405180910390a45b5050505050565b60008473ffffffffffffffffffffffffffffffffffffffff163b1115611662578373ffffffffffffffffffffffffffffffffffffffff1663f23a6e6187878686866040518663ffffffff1660e01b815260040161151795949392919061287e565b6020604051808303816000875af192505050801561155357506040513d601f19601f8201168201806040525081019061155091906128ed565b60015b6115d7573d8060008114611583576040519150601f19603f3d011682016040523d82523d6000602084013e611588565b606091505b5060008151036115cf57846040517f57f447ce0000000000000000000000000000000000000000000000000000000081526004016115c69190612140565b60405180910390fd5b805181602001fd5b63f23a6e6160e01b7bffffffffffffffffffffffffffffffffffffffffffffffffffffffff1916817bffffffffffffffffffffffffffffffffffffffffffffffffffffffff19161461166057846040517f57f447ce0000000000000000000000000000000000000000000000000000000081526004016116579190612140565b60405180910390fd5b505b505050505050565b60008473ffffffffffffffffffffffffffffffffffffffff163b1115611816578373ffffffffffffffffffffffffffffffffffffffff1663bc197c8187878686866040518663ffffffff1660e01b81526004016116cb95949392919061291a565b6020604051808303816000875af192505050801561170757506040513d601f19601f8201168201806040525081019061170491906128ed565b60015b61178b573d8060008114611737576040519150601f19603f3d011682016040523d82523d6000602084013e61173c565b606091505b50600081510361178357846040517f57f447ce00000000000000000000000000000000000000000000000000000000815260040161177a9190612140565b60405180910390fd5b805181602001fd5b63bc197c8160e01b7bffffffffffffffffffffffffffffffffffffffffffffffffffffffff1916817bffffffffffffffffffffffffffffffffffffffffffffffffffffffff19161461181457846040517f57f447ce00000000000000000000000000000000000000000000000000000000815260040161180b9190612140565b60405180910390fd5b505b505050505050565b6000604051905090565b600080fd5b600080fd5b600073ffffffffffffffffffffffffffffffffffffffff82169050919050565b600061185d82611832565b9050919050565b61186d81611852565b811461187857600080fd5b50565b60008135905061188a81611864565b92915050565b6000819050919050565b6118a381611890565b81146118ae57600080fd5b50565b6000813590506118c08161189a565b92915050565b600080604083850312156118dd576118dc611828565b5b60006118eb8582860161187b565b92505060206118fc858286016118b1565b9150509250929050565b61190f81611890565b82525050565b600060208201905061192a6000830184611906565b92915050565b60007fffffffff0000000000000000000000000000000000000000000000000000000082169050919050565b61196581611930565b811461197057600080fd5b50565b6000813590506119828161195c565b92915050565b60006020828403121561199e5761199d611828565b5b60006119ac84828501611973565b91505092915050565b60008115159050919050565b6119ca816119b5565b82525050565b60006020820190506119e560008301846119c1565b92915050565b600081519050919050565b600082825260208201905092915050565b60005b83811015611a25578082015181840152602081019050611a0a565b60008484015250505050565b6000601f19601f8301169050919050565b6000611a4d826119eb565b611a5781856119f6565b9350611a67818560208601611a07565b611a7081611a31565b840191505092915050565b60006020820190508181036000830152611a958184611a42565b905092915050565b600060208284031215611ab357611ab2611828565b5b6000611ac1848285016118b1565b91505092915050565b600080fd5b600080fd5b7f4e487b7100000000000000000000000000000000000000000000000000000000600052604160045260246000fd5b611b0c82611a31565b810181811067ffffffffffffffff82111715611b2b57611b2a611ad4565b5b80604052505050565b6000611b3e61181e565b9050611b4a8282611b03565b919050565b600067ffffffffffffffff821115611b6a57611b69611ad4565b5b611b7382611a31565b9050602081019050919050565b82818337600083830152505050565b6000611ba2611b9d84611b4f565b611b34565b905082815260208101848484011115611bbe57611bbd611acf565b5b611bc9848285611b80565b509392505050565b600082601f830112611be657611be5611aca565b5b8135611bf6848260208601611b8f565b91505092915050565b60008060408385031215611c1657611c15611828565b5b6000611c24858286016118b1565b925050602083013567ffffffffffffffff811115611c4557611c4461182d565b5b611c5185828601611bd1565b9150509250929050565b600067ffffffffffffffff821115611c7657611c75611ad4565b5b602082029050602081019050919050565b600080fd5b6000611c9f611c9a84611c5b565b611b34565b90508083825260208201905060208402830185811115611cc257611cc1611c87565b5b835b81811015611ceb5780611cd788826118b1565b845260208401935050602081019050611cc4565b5050509392505050565b600082601f830112611d0a57611d09611aca565b5b8135611d1a848260208601611c8c565b91505092915050565b600067ffffffffffffffff821115611d3e57611d3d611ad4565b5b611d4782611a31565b9050602081019050919050565b6000611d67611d6284611d23565b611b34565b905082815260208101848484011115611d8357611d82611acf565b5b611d8e848285611b80565b509392505050565b600082601f830112611dab57611daa611aca565b5b8135611dbb848260208601611d54565b91505092915050565b600080600080600060a08688031215611de057611ddf611828565b5b6000611dee8882890161187b565b9550506020611dff8882890161187b565b945050604086013567ffffffffffffffff811115611e2057611e1f61182d565b5b611e2c88828901611cf5565b935050606086013567ffffffffffffffff811115611e4d57611e4c61182d565b5b611e5988828901611cf5565b925050608086013567ffffffffffffffff811115611e7a57611e7961182d565b5b611e8688828901611d96565b9150509295509295909350565b600067ffffffffffffffff821115611eae57611ead611ad4565b5b602082029050602081019050919050565b6000611ed2611ecd84611e93565b611b34565b90508083825260208201905060208402830185811115611ef557611ef4611c87565b5b835b81811015611f1e5780611f0a888261187b565b845260208401935050602081019050611ef7565b5050509392505050565b600082601f830112611f3d57611f3c611aca565b5b8135611f4d848260208601611ebf565b91505092915050565b60008060408385031215611f6d57611f6c611828565b5b600083013567ffffffffffffffff811115611f8b57611f8a61182d565b5b611f9785828601611f28565b925050602083013567ffffffffffffffff811115611fb857611fb761182d565b5b611fc485828601611cf5565b9150509250929050565b600081519050919050565b600082825260208201905092915050565b6000819050602082019050919050565b61200381611890565b82525050565b60006120158383611ffa565b60208301905092915050565b6000602082019050919050565b600061203982611fce565b6120438185611fd9565b935061204e83611fea565b8060005b8381101561207f5781516120668882612009565b975061207183612021565b925050600181019050612052565b5085935050505092915050565b600060208201905081810360008301526120a6818461202e565b905092915050565b600080600080608085870312156120c8576120c7611828565b5b60006120d68782880161187b565b94505060206120e7878288016118b1565b93505060406120f8878288016118b1565b925050606085013567ffffffffffffffff8111156121195761211861182d565b5b61212587828801611d96565b91505092959194509250565b61213a81611852565b82525050565b60006020820190506121556000830184612131565b92915050565b612164816119b5565b811461216f57600080fd5b50565b6000813590506121818161215b565b92915050565b6000806040838503121561219e5761219d611828565b5b60006121ac8582860161187b565b92505060206121bd85828601612172565b9150509250929050565b600080604083850312156121de576121dd611828565b5b60006121ec8582860161187b565b92505060206121fd8582860161187b565b9150509250929050565b600080600080600060a0868803121561222357612222611828565b5b60006122318882890161187b565b95505060206122428882890161187b565b9450506040612253888289016118b1565b9350506060612264888289016118b1565b925050608086013567ffffffffffffffff8111156122855761228461182d565b5b61229188828901611d96565b9150509295509295909350565b6000602082840312156122b4576122b3611828565b5b60006122c28482850161187b565b91505092915050565b7f4e487b7100000000000000000000000000000000000000000000000000000000600052602260045260246000fd5b6000600282049050600182168061231257607f821691505b602082108103612325576123246122cb565b5b50919050565b7f555249206e6f742073657420666f7220746f6b656e0000000000000000000000600082015250565b60006123616015836119f6565b915061236c8261232b565b602082019050919050565b6000602082019050818103600083015261239081612354565b9050919050565b60008190508160005260206000209050919050565b60006020601f8301049050919050565b600082821b905092915050565b6000600883026123f97fffffffffffffffffffffffffffffffffffffffffffffffffffffffffffffffff826123bc565b61240386836123bc565b95508019841693508086168417925050509392505050565b6000819050919050565b600061244061243b61243684611890565b61241b565b611890565b9050919050565b6000819050919050565b61245a83612425565b61246e61246682612447565b8484546123c9565b825550505050565b600090565b612483612476565b61248e818484612451565b505050565b5b818110156124b2576124a760008261247b565b600181019050612494565b5050565b601f8211156124f7576124c881612397565b6124d1846123ac565b810160208510156124e0578190505b6124f46124ec856123ac565b830182612493565b50505b505050565b600082821c905092915050565b600061251a600019846008026124fc565b1980831691505092915050565b60006125338383612509565b9150826002028217905092915050565b61254c826119eb565b67ffffffffffffffff81111561256557612564611ad4565b5b61256f82546122fa565b61257a8282856124b6565b600060209050601f8311600181146125ad576000841561259b578287015190505b6125a58582612527565b86555061260d565b601f1984166125bb86612397565b60005b828110156125e3578489015182556001820191506020850194506020810190506125be565b8683101561260057848901516125fc601f891682612509565b8355505b6001600288020188555050505b505050505050565b600060408201905061262a6000830185612131565b6126376020830184612131565b9392505050565b60006040820190506126536000830185611906565b6126606020830184611906565b9392505050565b7f4e487b7100000000000000000000000000000000000000000000000000000000600052603260045260246000fd5b7f4e487b7100000000000000000000000000000000000000000000000000000000600052601160045260246000fd5b60006126d082611890565b91507fffffffffffffffffffffffffffffffffffffffffffffffffffffffffffffffff820361270257612701612696565b5b600182019050919050565b7f555249206d75737420626520736574206265666f7265206d696e74696e670000600082015250565b6000612743601e836119f6565b915061274e8261270d565b602082019050919050565b6000602082019050818103600083015261277281612736565b9050919050565b600060808201905061278e6000830187612131565b61279b6020830186611906565b6127a86040830185611906565b6127b56060830184611906565b95945050505050565b60006127c982611890565b91506127d483611890565b92508282019050808211156127ec576127eb612696565b5b92915050565b6000604082019050818103600083015261280c818561202e565b90508181036020830152612820818461202e565b90509392505050565b600081519050919050565b600082825260208201905092915050565b600061285082612829565b61285a8185612834565b935061286a818560208601611a07565b61287381611a31565b840191505092915050565b600060a0820190506128936000830188612131565b6128a06020830187612131565b6128ad6040830186611906565b6128ba6060830185611906565b81810360808301526128cc8184612845565b90509695505050505050565b6000815190506128e78161195c565b92915050565b60006020828403121561290357612902611828565b5b6000612911848285016128d8565b91505092915050565b600060a08201905061292f6000830188612131565b61293c6020830187612131565b818103604083015261294e818661202e565b90508181036060830152612962818561202e565b905081810360808301526129768184612845565b9050969550505050505056fea2646970667358221220eef1a495553e93e991eacd99b2b173ce986bd2e90d538fb3d3042c7c11a7c02e64736f6c63430008140033",
  "linkReferences": {},
  "deployedLinkReferences": {}
}