{
  "_format": "hh-sol-artifact-1",
  "contractName": "MatchSummary2",
  "sourceName": "contracts/MatchSummary2/MatchSummary2.sol",
  "abi": [
    {
      "anonymous": false,
      "inputs": [
        {
          "indexed": true,
          "internalType": "uint256",
          "name": "date",
          "type": "uint256"
        },
        {
          "indexed": false,
          "internalType": "string",
          "name": "location",
          "type": "string"
        },
        {
          "indexed": false,
          "internalType": "string",
          "name": "summaryJson",
          "type": "string"
        }
      ],
      "name": "MatchCommitted",
      "type": "event"
    },
    {
      "inputs": [
        {
          "internalType": "uint256",
          "name": "date",
          "type": "uint256"
        },
        {
          "internalType": "string",
          "name": "location",
          "type": "string"
        },
        {
          "internalType": "string",
          "name": "summaryJson",
          "type": "string"
        }
      ],
      "name": "commitSummary",
      "outputs": [],
      "stateMutability": "nonpayable",
      "type": "function"
    }
  ],
  "bytecode": "0x608060405234801561001057600080fd5b5061029a806100206000396000f3fe608060405234801561001057600080fd5b506004361061002b5760003560e01c806384ad3bac14610030575b600080fd5b61004a60048036038101906100459190610136565b61004c565b005b847f135a923e37b6f19b13c21a67fdfc58a4b6b279b8b4254b12d0a0e5b2d6b7c016858585856040516100829493929190610229565b60405180910390a25050505050565b600080fd5b600080fd5b6000819050919050565b6100ae8161009b565b81146100b957600080fd5b50565b6000813590506100cb816100a5565b92915050565b600080fd5b600080fd5b600080fd5b60008083601f8401126100f6576100f56100d1565b5b8235905067ffffffffffffffff811115610113576101126100d6565b5b60208301915083600182028301111561012f5761012e6100db565b5b9250929050565b60008060008060006060868803121561015257610151610091565b5b6000610160888289016100bc565b955050602086013567ffffffffffffffff81111561018157610180610096565b5b61018d888289016100e0565b9450945050604086013567ffffffffffffffff8111156101b0576101af610096565b5b6101bc888289016100e0565b92509250509295509295909350565b600082825260208201905092915050565b82818337600083830152505050565b6000601f19601f8301169050919050565b600061020883856101cb565b93506102158385846101dc565b61021e836101eb565b840190509392505050565b600060408201905081810360008301526102448186886101fc565b905081810360208301526102598184866101fc565b90509594505050505056fea264697066735822122073e32bd07ac44426b341196490609e3baadd7409c9b3a80513e3eca59fb64b3364736f6c63430008140033",
  "linkReferences": {},
  "deployedLinkReferences": {}
}