{
  "_format": "hh-sol-artifact-1",
  "contractName": "MerkleDrawManager",
  "sourceName": "contracts/MerkleDrawManager/MerkleDrawManager.sol",
  "abi": [
    {
      "anonymous": false,
      "inputs": [
        {
          "indexed": true,
          "internalType": "uint256",
          "name": "drawId",
          "type": "uint256"
        },
        {
          "indexed": false,
          "internalType": "bytes32",
          "name": "merkleRoot",
          "type": "bytes32"
        },
        {
          "indexed": false,
          "internalType": "uint256",
          "name": "drawBlockNumber",
          "type": "uint256"
        }
      ],
      "name": "DrawCreated",
      "type": "event"
    },
    {
      "anonymous": false,
      "inputs": [
        {
          "indexed": true,
          "internalType": "uint256",
          "name": "drawId",
          "type": "uint256"
        },
        {
          "indexed": false,
          "internalType": "bytes32",
          "name": "seed",
          "type": "bytes32"
        }
      ],
      "name": "SeedGenerated",
      "type": "event"
    },
    {
      "inputs": [
        {
          "internalType": "uint256",
          "name": "drawId",
          "type": "uint256"
        },
        {
          "internalType": "bytes32",
          "name": "merkleRoot",
          "type": "bytes32"
        },
        {
          "internalType": "uint256",
          "name": "drawBlockNumber",
          "type": "uint256"
        }
      ],
      "name": "createDraw",
      "outputs": [],
      "stateMutability": "nonpayable",
      "type": "function"
    },
    {
      "inputs": [
        {
          "internalType": "uint256",
          "name": "",
          "type": "uint256"
        }
      ],
      "name": "draws",
      "outputs": [
        {
          "internalType": "bytes32",
          "name": "merkleRoot",
          "type": "bytes32"
        },
        {
          "internalType": "uint256",
          "name": "drawBlockNumber",
          "type": "uint256"
        },
        {
          "internalType": "bytes32",
          "name": "seed",
          "type": "bytes32"
        },
        {
          "internalType": "bool",
          "name": "seedGenerated",
          "type": "bool"
        }
      ],
      "stateMutability": "view",
      "type": "function"
    },
    {
      "inputs": [
        {
          "internalType": "uint256",
          "name": "drawId",
          "type": "uint256"
        }
      ],
      "name": "generateSeed",
      "outputs": [],
      "stateMutability": "nonpayable",
      "type": "function"
    },
    {
      "inputs": [
        {
          "internalType": "uint256",
          "name": "drawId",
          "type": "uint256"
        },
        {
          "internalType": "uint256",
          "name": "totalParticipants",
          "type": "uint256"
        }
      ],
      "name": "getWinnerIndex",
      "outputs": [
        {
          "internalType": "uint256",
          "name": "",
          "type": "uint256"
        }
      ],
      "stateMutability": "view",
      "type": "function"
    },
    {
      "inputs": [
        {
          "internalType": "uint256",
          "name": "drawId",
          "type": "uint256"
        },
        {
          "internalType": "uint256",
          "name": "totalParticipants",
          "type": "uint256"
        },
        {
          "internalType": "uint256",
          "name": "leafIndex",
          "type": "uint256"
        },
        {
          "internalType": "address",
          "name": "user",
          "type": "address"
        },
        {
          "internalType": "bytes32[]",
          "name": "proof",
          "type": "bytes32[]"
        }
      ],
      "name": "verifyWinner",
      "outputs": [
        {
          "internalType": "bool",
          "name": "",
          "type": "bool"
        }
      ],
      "stateMutability": "view",
      "type": "function"
    }
  ],
  "bytecode": "0x608060405234801561001057600080fd5b50611073806100206000396000f3fe608060405234801561001057600080fd5b50600436106100575760003560e01c80630cc36c361461005c578063424611c31461008f578063a5afd138146100ab578063e26024c2146100c7578063f53f4ed6146100f7575b600080fd5b6100766004803603810190610071919061072d565b610127565b604051610086949392919061079d565b60405180910390f35b6100a960048036038101906100a4919061072d565b610164565b005b6100c560048036038101906100c0919061080e565b610339565b005b6100e160048036038101906100dc9190610861565b61048e565b6040516100ee91906108a1565b60405180910390f35b610111600480360381019061010c919061097f565b610555565b60405161011e9190610a19565b60405180910390f35b60006020528060005260406000206000915090508060000154908060010154908060020154908060030160009054906101000a900460ff16905084565b600080600083815260200190815260200160002090506000801b8160000154036101c3576040517f08c379a00000000000000000000000000000000000000000000000000000000081526004016101ba90610a91565b60405180910390fd5b8060030160009054906101000a900460ff1615610215576040517f08c379a000000000000000000000000000000000000000000000000000000000815260040161020c90610afd565b60405180910390fd5b8060010154431161025b576040517f08c379a000000000000000000000000000000000000000000000000000000000815260040161025290610b69565b60405180910390fd5b600081600101544090506000801b81036102aa576040517f08c379a00000000000000000000000000000000000000000000000000000000081526004016102a190610bd5565b60405180910390fd5b80836040516020016102bd929190610c37565b60405160208183030381529060405280519060200120826002018190555060018260030160006101000a81548160ff021916908315150217905550827f307583fd274bd2f891397898b2525ea924e4708e61f545ff6e399e5420f34aa9836002015460405161032c9190610c63565b60405180910390a2505050565b6000801b6000808581526020019081526020016000206000015414610393576040517f08c379a000000000000000000000000000000000000000000000000000000000815260040161038a90610cca565b60405180910390fd5b4381116103d5576040517f08c379a00000000000000000000000000000000000000000000000000000000081526004016103cc90610d36565b60405180910390fd5b60405180608001604052808381526020018281526020016000801b81526020016000151581525060008085815260200190815260200160002060008201518160000155602082015181600101556040820151816002015560608201518160030160006101000a81548160ff021916908315150217905550905050827f0597c657522cdc182a5b033c23db479e0102722a452f096523b3091c3ece3f1f8383604051610481929190610d56565b60405180910390a2505050565b60008060008085815260200190815260200160002090508060030160009054906101000a900460ff166104f6576040517f08c379a00000000000000000000000000000000000000000000000000000000081526004016104ed90610dcb565b60405180910390fd5b60008311610539576040517f08c379a000000000000000000000000000000000000000000000000000000000815260040161053090610e37565b60405180910390fd5b82816002015460001c61054c9190610e86565b91505092915050565b60008060008089815260200190815260200160002090508060030160009054906101000a900460ff166105bd576040517f08c379a00000000000000000000000000000000000000000000000000000000081526004016105b490610f03565b60405180910390fd5b600086866040516020016105d2929190610f6b565b60405160208183030381529060405280519060200120905060006105fc868685600001548561063a565b90508061060f5760009350505050610630565b600089846002015460001c6106249190610e86565b90508089149450505050505b9695505050505050565b600082610648868685610653565b149050949350505050565b60008082905060005b8585905081101561069f5761068a8287878481811061067e5761067d610f97565b5b905060200201356106ab565b9150808061069790610ff5565b91505061065c565b50809150509392505050565b60008183106106c3576106be82846106d6565b6106ce565b6106cd83836106d6565b5b905092915050565b600082600052816020526040600020905092915050565b600080fd5b600080fd5b6000819050919050565b61070a816106f7565b811461071557600080fd5b50565b60008135905061072781610701565b92915050565b600060208284031215610743576107426106ed565b5b600061075184828501610718565b91505092915050565b6000819050919050565b61076d8161075a565b82525050565b61077c816106f7565b82525050565b60008115159050919050565b61079781610782565b82525050565b60006080820190506107b26000830187610764565b6107bf6020830186610773565b6107cc6040830185610764565b6107d9606083018461078e565b95945050505050565b6107eb8161075a565b81146107f657600080fd5b50565b600081359050610808816107e2565b92915050565b600080600060608486031215610827576108266106ed565b5b600061083586828701610718565b9350506020610846868287016107f9565b925050604061085786828701610718565b9150509250925092565b60008060408385031215610878576108776106ed565b5b600061088685828601610718565b925050602061089785828601610718565b9150509250929050565b60006020820190506108b66000830184610773565b92915050565b600073ffffffffffffffffffffffffffffffffffffffff82169050919050565b60006108e7826108bc565b9050919050565b6108f7816108dc565b811461090257600080fd5b50565b600081359050610914816108ee565b92915050565b600080fd5b600080fd5b600080fd5b60008083601f84011261093f5761093e61091a565b5b8235905067ffffffffffffffff81111561095c5761095b61091f565b5b60208301915083602082028301111561097857610977610924565b5b9250929050565b60008060008060008060a0878903121561099c5761099b6106ed565b5b60006109aa89828a01610718565b96505060206109bb89828a01610718565b95505060406109cc89828a01610718565b94505060606109dd89828a01610905565b935050608087013567ffffffffffffffff8111156109fe576109fd6106f2565b5b610a0a89828a01610929565b92509250509295509295509295565b6000602082019050610a2e600083018461078e565b92915050565b600082825260208201905092915050565b7f4472617720646f6573206e6f7420657869737400000000000000000000000000600082015250565b6000610a7b601383610a34565b9150610a8682610a45565b602082019050919050565b60006020820190508181036000830152610aaa81610a6e565b9050919050565b7f5365656420616c72656164792067656e65726174656400000000000000000000600082015250565b6000610ae7601683610a34565b9150610af282610ab1565b602082019050919050565b60006020820190508181036000830152610b1681610ada565b9050919050565b7f4472617720626c6f636b206e6f74207265616368656400000000000000000000600082015250565b6000610b53601683610a34565b9150610b5e82610b1d565b602082019050919050565b60006020820190508181036000830152610b8281610b46565b9050919050565b7f426c6f636b68617368206e6f7420617661696c61626c65000000000000000000600082015250565b6000610bbf601783610a34565b9150610bca82610b89565b602082019050919050565b60006020820190508181036000830152610bee81610bb2565b9050919050565b6000819050919050565b610c10610c0b8261075a565b610bf5565b82525050565b6000819050919050565b610c31610c2c826106f7565b610c16565b82525050565b6000610c438285610bff565b602082019150610c538284610c20565b6020820191508190509392505050565b6000602082019050610c786000830184610764565b92915050565b7f4472617720616c72656164792065786973747300000000000000000000000000600082015250565b6000610cb4601383610a34565b9150610cbf82610c7e565b602082019050919050565b60006020820190508181036000830152610ce381610ca7565b9050919050565b7f4472617720626c6f636b206d75737420626520696e2074686520667574757265600082015250565b6000610d20602083610a34565b9150610d2b82610cea565b602082019050919050565b60006020820190508181036000830152610d4f81610d13565b9050919050565b6000604082019050610d6b6000830185610764565b610d786020830184610773565b9392505050565b7f53656564206e6f742067656e6572617465642079657400000000000000000000600082015250565b6000610db5601683610a34565b9150610dc082610d7f565b602082019050919050565b60006020820190508181036000830152610de481610da8565b9050919050565b7f4e6f207061727469636970616e74730000000000000000000000000000000000600082015250565b6000610e21600f83610a34565b9150610e2c82610deb565b602082019050919050565b60006020820190508181036000830152610e5081610e14565b9050919050565b7f4e487b7100000000000000000000000000000000000000000000000000000000600052601260045260246000fd5b6000610e91826106f7565b9150610e9c836106f7565b925082610eac57610eab610e57565b5b828206905092915050565b7f53656564206e6f742067656e6572617465640000000000000000000000000000600082015250565b6000610eed601283610a34565b9150610ef882610eb7565b602082019050919050565b60006020820190508181036000830152610f1c81610ee0565b9050919050565b60008160601b9050919050565b6000610f3b82610f23565b9050919050565b6000610f4d82610f30565b9050919050565b610f65610f60826108dc565b610f42565b82525050565b6000610f778285610c20565b602082019150610f878284610f54565b6014820191508190509392505050565b7f4e487b7100000000000000000000000000000000000000000000000000000000600052603260045260246000fd5b7f4e487b7100000000000000000000000000000000000000000000000000000000600052601160045260246000fd5b6000611000826106f7565b91507fffffffffffffffffffffffffffffffffffffffffffffffffffffffffffffffff820361103257611031610fc6565b5b60018201905091905056fea264697066735822122050c4545175f650d538d19ba18be116e8d512aebc9982d107c5baaa535948f85b64736f6c63430008140033",
  "linkReferences": {},
  "deployedLinkReferences": {}
}