{
  "_format": "hh-sol-artifact-1",
  "contractName": "Koin",
  "sourceName": "contracts/Koin/Koin.sol",
  "abi": [
    {
      "inputs": [],
      "stateMutability": "nonpayable",
      "type": "constructor"
    },
    {
      "inputs": [
        {
          "internalType": "address",
          "name": "spender",
          "type": "address"
        },
        {
          "internalType": "uint256",
          "name": "allowance",
          "type": "uint256"
        },
        {
          "internalType": "uint256",
          "name": "needed",
          "type": "uint256"
        }
      ],
      "name": "ERC20InsufficientAllowance",
      "type": "error"
    },
    {
      "inputs": [
        {
          "internalType": "address",
          "name": "sender",
          "type": "address"
        },
        {
          "internalType": "uint256",
          "name": "balance",
          "type": "uint256"
        },
        {
          "internalType": "uint256",
          "name": "needed",
          "type": "uint256"
        }
      ],
      "name": "ERC20InsufficientBalance",
      "type": "error"
    },
    {
      "inputs": [
        {
          "internalType": "address",
          "name": "approver",
          "type": "address"
        }
      ],
      "name": "ERC20InvalidApprover",
      "type": "error"
    },
    {
      "inputs": [
        {
          "internalType": "address",
          "name": "receiver",
          "type": "address"
        }
      ],
      "name": "ERC20InvalidReceiver",
      "type": "error"
    },
    {
      "inputs": [
        {
          "internalType": "address",
          "name": "sender",
          "type": "address"
        }
      ],
      "name": "ERC20InvalidSender",
      "type": "error"
    },
    {
      "inputs": [
        {
          "internalType": "address",
          "name": "spender",
          "type": "address"
        }
      ],
      "name": "ERC20InvalidSpender",
      "type": "error"
    },
    {
      "inputs": [],
      "name": "InvalidInitialization",
      "type": "error"
    },
    {
      "inputs": [],
      "name": "NotInitializing",
      "type": "error"
    },
    {
      "inputs": [
        {
          "internalType": "address",
          "name": "owner",
          "type": "address"
        }
      ],
      "name": "OwnableInvalidOwner",
      "type": "error"
    },
    {
      "inputs": [
        {
          "internalType": "address",
          "name": "account",
          "type": "address"
        }
      ],
      "name": "OwnableUnauthorizedAccount",
      "type": "error"
    },
    {
      "anonymous": false,
      "inputs": [
        {
          "indexed": true,
          "internalType": "address",
          "name": "owner",
          "type": "address"
        },
        {
          "indexed": true,
          "internalType": "address",
          "name": "spender",
          "type": "address"
        },
        {
          "indexed": false,
          "internalType": "uint256",
          "name": "value",
          "type": "uint256"
        }
      ],
      "name": "Approval",
      "type": "event"
    },
    {
      "anonymous": false,
      "inputs": [
        {
          "indexed": false,
          "internalType": "uint64",
          "name": "version",
          "type": "uint64"
        }
      ],
      "name": "Initialized",
      "type": "event"
    },
    {
      "anonymous": false,
      "inputs": [
        {
          "indexed": true,
          "internalType": "address",
          "name": "previousOwner",
          "type": "address"
        },
        {
          "indexed": true,
          "internalType": "address",
          "name": "newOwner",
          "type": "address"
        }
      ],
      "name": "OwnershipTransferred",
      "type": "event"
    },
    {
      "anonymous": false,
      "inputs": [
        {
          "indexed": true,
          "internalType": "address",
          "name": "from",
          "type": "address"
        },
        {
          "indexed": true,
          "internalType": "address",
          "name": "to",
          "type": "address"
        },
        {
          "indexed": false,
          "internalType": "uint256",
          "name": "value",
          "type": "uint256"
        }
      ],
      "name": "Transfer",
      "type": "event"
    },
    {
      "inputs": [
        {
          "internalType": "address",
          "name": "owner",
          "type": "address"
        },
        {
          "internalType": "address",
          "name": "spender",
          "type": "address"
        }
      ],
      "name": "allowance",
      "outputs": [
        {
          "internalType": "uint256",
          "name": "",
          "type": "uint256"
        }
      ],
      "stateMutability": "view",
      "type": "function"
    },
    {
      "inputs": [
        {
          "internalType": "address",
          "name": "spender",
          "type": "address"
        },
        {
          "internalType": "uint256",
          "name": "value",
          "type": "uint256"
        }
      ],
      "name": "approve",
      "outputs": [
        {
          "internalType": "bool",
          "name": "",
          "type": "bool"
        }
      ],
      "stateMutability": "nonpayable",
      "type": "function"
    },
    {
      "inputs": [
        {
          "internalType": "address",
          "name": "account",
          "type": "address"
        }
      ],
      "name": "balanceOf",
      "outputs": [
        {
          "internalType": "uint256",
          "name": "",
          "type": "uint256"
        }
      ],
      "stateMutability": "view",
      "type": "function"
    },
    {
      "inputs": [],
      "name": "decimals",
      "outputs": [
        {
          "internalType": "uint8",
          "name": "",
          "type": "uint8"
        }
      ],
      "stateMutability": "view",
      "type": "function"
    },
    {
      "inputs": [
        {
          "internalType": "address",
          "name": "initialOwner",
          "type": "address"
        },
        {
          "internalType": "uint256",
          "name": "initialSupply",
          "type": "uint256"
        }
      ],
      "name": "initialize",
      "outputs": [],
      "stateMutability": "nonpayable",
      "type": "function"
    },
    {
      "inputs": [
        {
          "internalType": "address",
          "name": "to",
          "type": "address"
        },
        {
          "internalType": "uint256",
          "name": "amount",
          "type": "uint256"
        }
      ],
      "name": "mint",
      "outputs": [],
      "stateMutability": "nonpayable",
      "type": "function"
    },
    {
      "inputs": [],
      "name": "name",
      "outputs": [
        {
          "internalType": "string",
          "name": "",
          "type": "string"
        }
      ],
      "stateMutability": "view",
      "type": "function"
    },
    {
      "inputs": [],
      "name": "owner",
      "outputs": [
        {
          "internalType": "address",
          "name": "",
          "type": "address"
        }
      ],
      "stateMutability": "view",
      "type": "function"
    },
    {
      "inputs": [],
      "name": "renounceOwnership",
      "outputs": [],
      "stateMutability": "nonpayable",
      "type": "function"
    },
    {
      "inputs": [],
      "name": "symbol",
      "outputs": [
        {
          "internalType": "string",
          "name": "",
          "type": "string"
        }
      ],
      "stateMutability": "view",
      "type": "function"
    },
    {
      "inputs": [],
      "name": "totalSupply",
      "outputs": [
        {
          "internalType": "uint256",
          "name": "",
          "type": "uint256"
        }
      ],
      "stateMutability": "view",
      "type": "function"
    },
    {
      "inputs": [
        {
          "internalType": "address",
          "name": "to",
          "type": "address"
        },
        {
          "internalType": "uint256",
          "name": "value",
          "type": "uint256"
        }
      ],
      "name": "transfer",
      "outputs": [
        {
          "internalType": "bool",
          "name": "",
          "type": "bool"
        }
      ],
      "stateMutability": "nonpayable",
      "type": "function"
    },
    {
      "inputs": [
        {
          "internalType": "address",
          "name": "from",
          "type": "address"
        },
        {
          "internalType": "address",
          "name": "to",
          "type": "address"
        },
        {
          "internalType": "uint256",
          "name": "value",
          "type": "uint256"
        }
      ],
      "name": "transferFrom",
      "outputs": [
        {
          "internalType": "bool",
          "name": "",
          "type": "bool"
        }
      ],
      "stateMutability": "nonpayable",
      "type": "function"
    },
    {
      "inputs": [
        {
          "internalType": "address",
          "name": "newOwner",
          "type": "address"
        }
      ],
      "name": "transferOwnership",
      "outputs": [],
      "stateMutability": "nonpayable",
      "type": "function"
    }
  ],
  "bytecode": "0x60806040523480156200001157600080fd5b50620000226200002860201b60201c565b620001bb565b60006200003a6200013260201b60201c565b90508060000160089054906101000a900460ff161562000086576040517ff92ee8a900000000000000000000000000000000000000000000000000000000815260040160405180910390fd5b67ffffffffffffffff80168160000160009054906101000a900467ffffffffffffffff1667ffffffffffffffff16146200012f5767ffffffffffffffff8160000160006101000a81548167ffffffffffffffff021916908367ffffffffffffffff1602179055507fc7f505b2f371ae2175ee4913f4499e1f2633a7b5936321eed1cdaeb6115181d267ffffffffffffffff6040516200012691906200019e565b60405180910390a15b50565b600080620001456200014e60201b60201c565b90508091505090565b60007ff0c57e16840df040f15088dc2f81fe391c3923bec73e23a9662efc9c229c6a0060001b905090565b600067ffffffffffffffff82169050919050565b620001988162000179565b82525050565b6000602082019050620001b560008301846200018d565b92915050565b61196d80620001cb6000396000f3fe608060405234801561001057600080fd5b50600436106100ea5760003560e01c8063715018a61161008c578063a9059cbb11610066578063a9059cbb1461023b578063cd6dc6871461026b578063dd62ed3e14610287578063f2fde38b146102b7576100ea565b8063715018a6146101f55780638da5cb5b146101ff57806395d89b411461021d576100ea565b806323b872dd116100c857806323b872dd1461015b578063313ce5671461018b57806340c10f19146101a957806370a08231146101c5576100ea565b806306fdde03146100ef578063095ea7b31461010d57806318160ddd1461013d575b600080fd5b6100f76102d3565b60405161010491906112aa565b60405180910390f35b61012760048036038101906101229190611365565b610374565b60405161013491906113c0565b60405180910390f35b610145610397565b60405161015291906113ea565b60405180910390f35b61017560048036038101906101709190611405565b6103af565b60405161018291906113c0565b60405180910390f35b6101936103de565b6040516101a09190611474565b60405180910390f35b6101c360048036038101906101be9190611365565b6103e7565b005b6101df60048036038101906101da919061148f565b6103fd565b6040516101ec91906113ea565b60405180910390f35b6101fd610454565b005b610207610468565b60405161021491906114cb565b60405180910390f35b6102256104a0565b60405161023291906112aa565b60405180910390f35b61025560048036038101906102509190611365565b610541565b60405161026291906113c0565b60405180910390f35b61028560048036038101906102809190611365565b610564565b005b6102a1600480360381019061029c91906114e6565b61077b565b6040516102ae91906113ea565b60405180910390f35b6102d160048036038101906102cc919061148f565b610810565b005b606060006102df610896565b90508060030180546102f090611555565b80601f016020809104026020016040519081016040528092919081815260200182805461031c90611555565b80156103695780601f1061033e57610100808354040283529160200191610369565b820191906000526020600020905b81548152906001019060200180831161034c57829003601f168201915b505050505091505090565b60008061037f6108be565b905061038c8185856108c6565b600191505092915050565b6000806103a2610896565b9050806002015491505090565b6000806103ba6108be565b90506103c78582856108d8565b6103d285858561096d565b60019150509392505050565b60006012905090565b6103ef610a61565b6103f98282610ae8565b5050565b600080610408610896565b90508060000160008473ffffffffffffffffffffffffffffffffffffffff1673ffffffffffffffffffffffffffffffffffffffff16815260200190815260200160002054915050919050565b61045c610a61565b6104666000610b6a565b565b600080610473610c41565b90508060000160009054906101000a900473ffffffffffffffffffffffffffffffffffffffff1691505090565b606060006104ac610896565b90508060040180546104bd90611555565b80601f01602080910402602001604051908101604052809291908181526020018280546104e990611555565b80156105365780601f1061050b57610100808354040283529160200191610536565b820191906000526020600020905b81548152906001019060200180831161051957829003601f168201915b505050505091505090565b60008061054c6108be565b905061055981858561096d565b600191505092915050565b600061056e610c69565b905060008160000160089054906101000a900460ff1615905060008260000160009054906101000a900467ffffffffffffffff1690506000808267ffffffffffffffff161480156105bc5750825b9050600060018367ffffffffffffffff161480156105f1575060003073ffffffffffffffffffffffffffffffffffffffff163b145b9050811580156105ff575080155b15610636576040517ff92ee8a900000000000000000000000000000000000000000000000000000000815260040160405180910390fd5b60018560000160006101000a81548167ffffffffffffffff021916908367ffffffffffffffff16021790555083156106865760018560000160086101000a81548160ff0219169083151502179055505b6106fa6040518060400160405280600481526020017f4b6f696e000000000000000000000000000000000000000000000000000000008152506040518060400160405280600481526020017f4b4f494e00000000000000000000000000000000000000000000000000000000815250610c7d565b61070387610c93565b61070d8787610ae8565b61071687610b6a565b83156107725760008560000160086101000a81548160ff0219169083151502179055507fc7f505b2f371ae2175ee4913f4499e1f2633a7b5936321eed1cdaeb6115181d2600160405161076991906115df565b60405180910390a15b50505050505050565b600080610786610896565b90508060010160008573ffffffffffffffffffffffffffffffffffffffff1673ffffffffffffffffffffffffffffffffffffffff16815260200190815260200160002060008473ffffffffffffffffffffffffffffffffffffffff1673ffffffffffffffffffffffffffffffffffffffff1681526020019081526020016000205491505092915050565b610818610a61565b600073ffffffffffffffffffffffffffffffffffffffff168173ffffffffffffffffffffffffffffffffffffffff160361088a5760006040517f1e4fbdf700000000000000000000000000000000000000000000000000000000815260040161088191906114cb565b60405180910390fd5b61089381610b6a565b50565b60007f52c63247e1f47db19d5ce0460030c497f067ca4cebf71ba98eeadabe20bace00905090565b600033905090565b6108d38383836001610ca7565b505050565b60006108e4848461077b565b90507fffffffffffffffffffffffffffffffffffffffffffffffffffffffffffffffff8110156109675781811015610957578281836040517ffb8f41b200000000000000000000000000000000000000000000000000000000815260040161094e939291906115fa565b60405180910390fd5b61096684848484036000610ca7565b5b50505050565b600073ffffffffffffffffffffffffffffffffffffffff168373ffffffffffffffffffffffffffffffffffffffff16036109df5760006040517f96c6fd1e0000000000000000000000000000000000000000000000000000000081526004016109d691906114cb565b60405180910390fd5b600073ffffffffffffffffffffffffffffffffffffffff168273ffffffffffffffffffffffffffffffffffffffff1603610a515760006040517fec442f05000000000000000000000000000000000000000000000000000000008152600401610a4891906114cb565b60405180910390fd5b610a5c838383610e8d565b505050565b610a696108be565b73ffffffffffffffffffffffffffffffffffffffff16610a87610468565b73ffffffffffffffffffffffffffffffffffffffff1614610ae657610aaa6108be565b6040517f118cdaa7000000000000000000000000000000000000000000000000000000008152600401610add91906114cb565b60405180910390fd5b565b600073ffffffffffffffffffffffffffffffffffffffff168273ffffffffffffffffffffffffffffffffffffffff1603610b5a5760006040517fec442f05000000000000000000000000000000000000000000000000000000008152600401610b5191906114cb565b60405180910390fd5b610b6660008383610e8d565b5050565b6000610b74610c41565b905060008160000160009054906101000a900473ffffffffffffffffffffffffffffffffffffffff169050828260000160006101000a81548173ffffffffffffffffffffffffffffffffffffffff021916908373ffffffffffffffffffffffffffffffffffffffff1602179055508273ffffffffffffffffffffffffffffffffffffffff168173ffffffffffffffffffffffffffffffffffffffff167f8be0079c531659141344cd1fd0a4f28419497f9722a3daafe3b4186f6b6457e060405160405180910390a3505050565b60007f9016d09d72d40fdae2fd8ceac6b6234c7706214fd39c1cd1e609a0528c199300905090565b600080610c746110cc565b90508091505090565b610c856110f7565b610c8f8282611137565b5050565b610c9b6110f7565b610ca481611174565b50565b6000610cb1610896565b9050600073ffffffffffffffffffffffffffffffffffffffff168573ffffffffffffffffffffffffffffffffffffffff1603610d255760006040517fe602df05000000000000000000000000000000000000000000000000000000008152600401610d1c91906114cb565b60405180910390fd5b600073ffffffffffffffffffffffffffffffffffffffff168473ffffffffffffffffffffffffffffffffffffffff1603610d975760006040517f94280d62000000000000000000000000000000000000000000000000000000008152600401610d8e91906114cb565b60405180910390fd5b828160010160008773ffffffffffffffffffffffffffffffffffffffff1673ffffffffffffffffffffffffffffffffffffffff16815260200190815260200160002060008673ffffffffffffffffffffffffffffffffffffffff1673ffffffffffffffffffffffffffffffffffffffff168152602001908152602001600020819055508115610e86578373ffffffffffffffffffffffffffffffffffffffff168573ffffffffffffffffffffffffffffffffffffffff167f8c5be1e5ebec7d5bd14f71427d1e84f3dd0314c0f7b2291e5b200ac8c7c3b92585604051610e7d91906113ea565b60405180910390a35b5050505050565b6000610e97610896565b9050600073ffffffffffffffffffffffffffffffffffffffff168473ffffffffffffffffffffffffffffffffffffffff1603610eed5781816002016000828254610ee19190611660565b92505081905550610fc6565b60008160000160008673ffffffffffffffffffffffffffffffffffffffff1673ffffffffffffffffffffffffffffffffffffffff16815260200190815260200160002054905082811015610f7c578481846040517fe450d38c000000000000000000000000000000000000000000000000000000008152600401610f73939291906115fa565b60405180910390fd5b8281038260000160008773ffffffffffffffffffffffffffffffffffffffff1673ffffffffffffffffffffffffffffffffffffffff16815260200190815260200160002081905550505b600073ffffffffffffffffffffffffffffffffffffffff168373ffffffffffffffffffffffffffffffffffffffff160361101157818160020160008282540392505081905550611061565b818160000160008573ffffffffffffffffffffffffffffffffffffffff1673ffffffffffffffffffffffffffffffffffffffff168152602001908152602001600020600082825401925050819055505b8273ffffffffffffffffffffffffffffffffffffffff168473ffffffffffffffffffffffffffffffffffffffff167fddf252ad1be2c89b69c2b068fc378daa952ba7f163c4a11628f55a4df523b3ef846040516110be91906113ea565b60405180910390a350505050565b60007ff0c57e16840df040f15088dc2f81fe391c3923bec73e23a9662efc9c229c6a0060001b905090565b6110ff6111fa565b611135576040517fd7e6bcf800000000000000000000000000000000000000000000000000000000815260040160405180910390fd5b565b61113f6110f7565b6000611149610896565b90508281600301908161115c9190611865565b508181600401908161116e9190611865565b50505050565b61117c6110f7565b600073ffffffffffffffffffffffffffffffffffffffff168173ffffffffffffffffffffffffffffffffffffffff16036111ee5760006040517f1e4fbdf70000000000000000000000000000000000000000000000000000000081526004016111e591906114cb565b60405180910390fd5b6111f781610b6a565b50565b6000611204610c69565b60000160089054906101000a900460ff16905090565b600081519050919050565b600082825260208201905092915050565b60005b83811015611254578082015181840152602081019050611239565b60008484015250505050565b6000601f19601f8301169050919050565b600061127c8261121a565b6112868185611225565b9350611296818560208601611236565b61129f81611260565b840191505092915050565b600060208201905081810360008301526112c48184611271565b905092915050565b600080fd5b600073ffffffffffffffffffffffffffffffffffffffff82169050919050565b60006112fc826112d1565b9050919050565b61130c816112f1565b811461131757600080fd5b50565b60008135905061132981611303565b92915050565b6000819050919050565b6113428161132f565b811461134d57600080fd5b50565b60008135905061135f81611339565b92915050565b6000806040838503121561137c5761137b6112cc565b5b600061138a8582860161131a565b925050602061139b85828601611350565b9150509250929050565b60008115159050919050565b6113ba816113a5565b82525050565b60006020820190506113d560008301846113b1565b92915050565b6113e48161132f565b82525050565b60006020820190506113ff60008301846113db565b92915050565b60008060006060848603121561141e5761141d6112cc565b5b600061142c8682870161131a565b935050602061143d8682870161131a565b925050604061144e86828701611350565b9150509250925092565b600060ff82169050919050565b61146e81611458565b82525050565b60006020820190506114896000830184611465565b92915050565b6000602082840312156114a5576114a46112cc565b5b60006114b38482850161131a565b91505092915050565b6114c5816112f1565b82525050565b60006020820190506114e060008301846114bc565b92915050565b600080604083850312156114fd576114fc6112cc565b5b600061150b8582860161131a565b925050602061151c8582860161131a565b9150509250929050565b7f4e487b7100000000000000000000000000000000000000000000000000000000600052602260045260246000fd5b6000600282049050600182168061156d57607f821691505b6020821081036115805761157f611526565b5b50919050565b6000819050919050565b600067ffffffffffffffff82169050919050565b6000819050919050565b60006115c96115c46115bf84611586565b6115a4565b611590565b9050919050565b6115d9816115ae565b82525050565b60006020820190506115f460008301846115d0565b92915050565b600060608201905061160f60008301866114bc565b61161c60208301856113db565b61162960408301846113db565b949350505050565b7f4e487b7100000000000000000000000000000000000000000000000000000000600052601160045260246000fd5b600061166b8261132f565b91506116768361132f565b925082820190508082111561168e5761168d611631565b5b92915050565b7f4e487b7100000000000000000000000000000000000000000000000000000000600052604160045260246000fd5b60008190508160005260206000209050919050565b60006020601f8301049050919050565b600082821b905092915050565b6000600883026117257fffffffffffffffffffffffffffffffffffffffffffffffffffffffffffffffff826116e8565b61172f86836116e8565b95508019841693508086168417925050509392505050565b600061176261175d6117588461132f565b6115a4565b61132f565b9050919050565b6000819050919050565b61177c83611747565b61179061178882611769565b8484546116f5565b825550505050565b600090565b6117a5611798565b6117b0818484611773565b505050565b5b818110156117d4576117c960008261179d565b6001810190506117b6565b5050565b601f821115611819576117ea816116c3565b6117f3846116d8565b81016020851015611802578190505b61181661180e856116d8565b8301826117b5565b50505b505050565b600082821c905092915050565b600061183c6000198460080261181e565b1980831691505092915050565b6000611855838361182b565b9150826002028217905092915050565b61186e8261121a565b67ffffffffffffffff81111561188757611886611694565b5b6118918254611555565b61189c8282856117d8565b600060209050601f8311600181146118cf57600084156118bd578287015190505b6118c78582611849565b86555061192f565b601f1984166118dd866116c3565b60005b82811015611905578489015182556001820191506020850194506020810190506118e0565b86831015611922578489015161191e601f89168261182b565b8355505b6001600288020188555050505b50505050505056fea26469706673582212200352be2e5d5e7aa82d336fc9acefb932c842a35750867d83077f41b76cdb678264736f6c63430008140033",
  "linkReferences": {},
  "deployedLinkReferences": {}
}